S020000043617463685468654C6967687450726F746F7479706556312E73726563AB
S11300000C9491000C94AE000C94AE000C94AE00D1
S11300100C94AE000C94AE000C94AE000C94AE00A4
S11300200C94AE000C94AE000C94AE000C94AE0094
S11300300C94AE000C94AE000C94B5000C943111E9
S11300400C94AE000C94AE000C94AE000C94AE0074
S11300500C94AE000C94AE000C94AE000C94AE0064
S11300600C94AE000C94AE000C94AE000C94AE0054
S11300700C94AE000C94AE000C94AE000C94AE0044
S11300800C94AE000C94AE000C94AE000C94AE0034
S11300900C94AE000C942E120C94AE000C94AE0092
S11300A00C94AE000C94AE000C94AE000C94AE0014
S11300B00C94AE004F0E680E7D0E800E830E860EDD
S11300C0890E8C0E8F0E920E950E980E9B0E9E0E20
S11300D0AC0EAF0EB20EB50EB80EBB0EBE0EC10EF8
S11300E0C40EC70ECA0ECD0ED40FD80FDC0FE00F0E
S11300F0E40FE80FEC0FF00FF40F19101D1021108E
S1130100251029102D103110351039103D105E10B6
S1130110621066106A106E10721076107A107E10DB
S1130120821011241FBECFEFD8E0DEBFCDBF11E097
S1130130A0E0B1E0E8E1F0E402C005900D92A63839
S1130140B107D9F721E0A6E8B1E001C01D92A63EAF
S1130150B207E1F70E94EC100C940A200C94000002
S11301600E9452120E94941108951F920F920FB68A
S11301700F9211242F933F934F935F936F937F9329
S11301808F939F93AF93BF93EF93FF930E940812B3
S1130190A89AFF91EF91BF91AF919F918F917F9119
S11301A06F915F914F913F912F910F900FBE0F90E0
S11301B01F901895EEE6F0E08081846080830895B6
S11301C08BB18FEF8BB995B185B988B18F6388B93D
S11301D08EB187608EB9089580918D01863068F460
S11301E09FEF95B9E0918D01F0E0E059FE4F8081D9
S11301F08F7388B99BB987E08EB980918D01865041
S1130200833068F48FEF85B99FE398B98BB9E09197
S11302108D01F0E0E65AFE4F808187708EB980919F
S11302208D018950883068F48FEF85B98FE388B9E0
S1130230E0918D01F0E0E15AFE4F80818BB987E0B7
S11302408EB9E0918D018FEE8E0F883058F4F0E076
S1130250E959FE4F808185B98FE388B98FEF8BB957
S113026087E08EB980918D0190E00196E6E1F0E09F
S1130270BF010E94CD1F9C0180938D018091870155
S113028090E00296BF010E94CD1F33278217930787
S113029011F410928801089580918D01833068F4DF
S11302A09FEF95B9E0918D01F0E0E059FE4F808118
S11302B08F7388B99BB987E08EB980918D01835083
S11302C0833068F49FEF95B9E0918D01F0E0E05937
S11302D0FE4F80818F7388B99BB987E08EB9809176
S11302E08D01863069F48FEF85B99FE398B98BB996
S11302F0E0918D01F0E0E65AFE4F808187708EB95F
S113030080918D018750823068F48FEF85B99FE327
S113031098B98BB9E0918D01F0E0E65AFE4F8081E7
S113032087708EB980918D018950823068F48FEF87
S113033085B98FE388B9E0918D01F0E0E15AFE4F71
S113034080818BB987E08EB980918D018B50833089
S113035068F48FEF85B98FE388B9E0918D01F0E0FF
S1130360E15AFE4F80818BB987E08EB980918D016F
S11303708E50833068F48FEF85B98FE388B9E091AC
S11303808D01F0E0E15AFE4F80818BB987E08EB990
S113039080918D01813141F48EEF85B98FE388B965
S11303A08FEF8BB987E08EB9E0918D018EEE8E0FC1
S11303B0843058F4F0E0E959FE4F808185B98FE329
S11303C088B98FEF8BB987E08EB980918D0190E069
S11303D0019669E170E00E94CD1F80938D0108951C
S11303E080918D018350833068F49FEF95B9E0913B
S11303F08D01F0E0E059FE4F80818F7388B99BB97D
S113040087E08EB980918D01863069F48FEF85B9CC
S11304109FE398B98BB9E0918D01F0E0E65AFE4F65
S1130420808187708EB980918D018750823068F405
S11304308FEF85B99FE398B98BB9E0918D01F0E016
S1130440E65AFE4F808187708EB980918D01895064
S1130450823068F48FEF85B98FE388B9E0918D011C
S1130460F0E0E15AFE4F80818BB987E08EB980912C
S11304708D0190E0019669E170E00E94CD1F8093A8
S11304808D01089580918D01833068F49FEF95B9B3
S1130490E0918D01F0E0E059FE4F80818F7388B9BF
S11304A09BB987E08EB980918D018350833068F4C5
S11304B09FEF95B9E0918D01F0E0E059FE4F808106
S11304C08F7388B99BB987E08EB980918D0186308E
S11304D069F48FEF85B99FE398B98BB9E0918D01E9
S11304E0F0E0E65AFE4F808187708EB980918D01CD
S11304F08B50833068F48FEF85B98FE388B9E0912E
S11305008D01F0E0E15AFE4F80818BB987E08EB90E
S113051080918D018E50833068F48FEF85B98FE31D
S113052088B9E0918D01F0E0E15AFE4F80818BB9EA
S113053087E08EB980918D01813141F48EEF85B9C8
S11305408FE388B98FEF8BB987E08EB9E0918D0185
S11305508AEE8E0F833058F4F0E0E959FE4F808123
S113056085B98FE388B98FEF8BB987E08EB9809115
S11305708D0190E0019669E170E00E94CD1F8093A7
S11305808D01089580918D01833068F49FEF95B9B2
S1130590E0918D01F0E0E059FE4F80818F7388B9BE
S11305A09BB987E08EB980918D018350833068F4C4
S11305B09FEF95B9E0918D01F0E0E059FE4F808105
S11305C08F7388B99BB987E08EB980918D0186308D
S11305D069F48FEF85B99FE398B98BB9E0918D01E8
S11305E0F0E0E65AFE4F808187708EB980918D01CC
S11305F08750823068F48FEF85B99FE398B98BB93F
S1130600E0918D01F0E0E65AFE4F808187708EB94B
S113061080918D018950823068F48FEF85B98FE322
S113062088B9E0918D01F0E0E15AFE4F80818BB9E9
S113063087E08EB980918D018B50833068F48FEF01
S113064085B98FE388B9E0918D01F0E0E15AFE4F5E
S113065080818BB987E08EB9E0918D018AEE8E0F8F
S1130660833058F4F0E0E959FE4F808185B98FE377
S113067088B98FEF8BB987E08EB980918D0190E0B6
S1130680019669E170E00E94CD1F80938D01089569
S113069080918D018350833068F49FEF95B9E09188
S11306A08D01F0E0E059FE4F80818F7388B99BB9CA
S11306B087E08EB980918D01863069F48FEF85B91A
S11306C09FE398B98BB9E0918D01F0E0E65AFE4FB3
S11306D0808187708EB980918D018750823068F453
S11306E08FEF85B99FE398B98BB9E0918D01F0E064
S11306F0E65AFE4F808187708EB980918D018950B2
S1130700823068F48FEF85B98FE388B9E0918D0169
S1130710F0E0E15AFE4F80818BB987E08EB9E09119
S11307208D018EEE8E0F843058F4F0E0E959FE4FBF
S1130730808185B98FE388B98FEF8BB987E08EB953
S1130740E0918D018AEE8E0F833058F4F0E0E95980
S1130750FE4F808185B98FE388B98FEF8BB987E02D
S11307608EB980918D0190E0019669E170E00E945C
S1130770CD1F80938D01089580918D01833068F49D
S11307809FEF95B9E0918D01F0E0E059FE4F808133
S11307908F7388B99BB987E08EB980918D0187509A
S11307A0823068F48FEF85B99FE398B98BB9E091F3
S11307B08D01F0E0E65AFE4F808187708EB98091FA
S11307C08D018950823068F48FEF85B98FE388B941
S11307D0E0918D01F0E0E15AFE4F80818BB987E012
S11307E08EB980918D018B50833068F48FEF85B979
S11307F08FE388B9E0918D01F0E0E15AFE4F8081EA
S11308008BB987E08EB9E0918D018EEE8E0F843026
S113081058F4F0E0E959FE4F808185B98FE388B937
S11308208FEF8BB987E08EB9E0918D018AEE8E0F40
S1130830833058F4F0E0E959FE4F808185B98FE3A5
S113084088B98FEF8BB987E08EB980918D0190E0E4
S1130850019669E170E00E94CD1F80938D01089597
S113086080918D01833068F49FEF95B9E0918D01FB
S1130870F0E0E059FE4F80818F7388B99BB987E01F
S11308808EB980918D018750823068F48FEF85B9DD
S11308909FE398B98BB9E0918D01F0E0E65AFE4FE1
S11308A0808187708EB980918D018950823068F47F
S11308B08FEF85B98FE388B9E0918D01F0E0E15ABB
S11308C0FE4F80818BB987E08EB980918D018B506A
S11308D0833068F48FEF85B98FE388B9E0918D0197
S11308E0F0E0E15AFE4F80818BB987E08EB98091A8
S11308F08D018E50833068F48FEF85B98FE388B90A
S1130900E0918D01F0E0E15AFE4F80818BB987E0E0
S11309108EB980918D01813141F48EEF85B98FE3D9
S113092088B98FEF8BB987E08EB9E0918D018EEE97
S11309308E0F843058F4F0E0E959FE4F808185B978
S11309408FE388B98FEF8BB987E08EB9E0918D0181
S11309508AEE8E0F833058F4F0E0E959FE4F80811F
S113096085B98FE388B98FEF8BB987E08EB9809111
S11309708D0190E0019669E170E00E94CD1F8093A3
S11309808D01089580918D01833068F49FEF95B9AE
S1130990E0918D01F0E0E059FE4F80818F7388B9BA
S11309A09BB987E08EB980918D018350833068F4C0
S11309B09FEF95B9E0918D01F0E0E059FE4F808101
S11309C08F7388B99BB987E08EB980918D01863089
S11309D069F48FEF85B99FE398B98BB9E0918D01E4
S11309E0F0E0E65AFE4F808187708EB980918D01C8
S11309F08750823068F48FEF85B99FE398B98BB93B
S1130A00E0918D01F0E0E65AFE4F808187708EB947
S1130A1080918D018950823068F48FEF85B98FE31E
S1130A2088B9E0918D01F0E0E15AFE4F80818BB9E5
S1130A3087E08EB980918D0190E0019669E170E0C4
S1130A400E94CD1F80938D01089580918D01833084
S1130A5068F49FEF95B9E0918D01F0E0E059FE4F05
S1130A6080818F7388B99BB987E08EB980918D019D
S1130A708350833068F49FEF95B9E0918D01F0E0E5
S1130A80E059FE4F80818F7388B99BB987E08EB996
S1130A9080918D01863069F48FEF85B99FE398B911
S1130AA08BB9E0918D01F0E0E65AFE4F80818770AA
S1130AB08EB980918D018750823068F48FEF85B9AB
S1130AC09FE398B98BB9E0918D01F0E0E65AFE4FAF
S1130AD0808187708EB980918D018950823068F44D
S1130AE08FEF85B98FE388B9E0918D01F0E0E15A89
S1130AF0FE4F80818BB987E08EB980918D018B5038
S1130B00833068F48FEF85B98FE388B9E0918D0164
S1130B10F0E0E15AFE4F80818BB987E08EB9809175
S1130B208D018E50833068F48FEF85B98FE388B9D7
S1130B30E0918D01F0E0E15AFE4F80818BB987E0AE
S1130B408EB980918D01813141F48EEF85B98FE3A7
S1130B5088B98FEF8BB987E08EB9E0918D018EEE65
S1130B608E0F843058F4F0E0E959FE4F808185B946
S1130B708FE388B98FEF8BB987E08EB9E0918D014F
S1130B808AEE8E0F833058F4F0E0E959FE4F8081ED
S1130B9085B98FE388B98FEF8BB987E08EB98091DF
S1130BA08D0190E0019669E170E00E94CD1F809371
S1130BB08D01089580918D01833068F49FEF95B97C
S1130BC0E0918D01F0E0E059FE4F80818F7388B988
S1130BD09BB987E08EB980918D018350833068F48E
S1130BE09FEF95B9E0918D01F0E0E059FE4F8081CF
S1130BF08F7388B99BB987E08EB980918D01863057
S1130C0069F48FEF85B99FE398B98BB9E0918D01B1
S1130C10F0E0E65AFE4F808187708EB980918D0195
S1130C208750823068F48FEF85B99FE398B98BB908
S1130C30E0918D01F0E0E65AFE4F808187708EB915
S1130C4080918D018950823068F48FEF85B98FE3EC
S1130C5088B9E0918D01F0E0E15AFE4F80818BB9B3
S1130C6087E08EB980918D018B50833068F48FEFCB
S1130C7085B98FE388B9E0918D01F0E0E15AFE4F28
S1130C8080818BB987E08EB9E0918D018EEE8E0F55
S1130C90843058F4F0E0E959FE4F808185B98FE340
S1130CA088B98FEF8BB987E08EB9E0918D018AEE18
S1130CB08E0F833058F4F0E0E959FE4F808185B9F6
S1130CC08FE388B98FEF8BB987E08EB980918D015E
S1130CD090E0019669E170E00E94CD1F80938D0140
S1130CE0089580918D01843038F48FEF85B99FE3A6
S1130CF098B98BB987E08EB980918D018450823088
S1130D0068F49FEF95B9E0918D01F0E0E059FE4F52
S1130D1080818F7388B99BB987E08EB980918D01EA
S1130D20863069F48FEF85B99FE398B98BB9E09168
S1130D308D01F0E0E65AFE4F808187708EB9809174
S1130D408D018750823068F48FEF85B99FE398B99D
S1130D508BB9E0918D01F0E0E65AFE4F80818770F7
S1130D608EB980918D01893069F48FEF85B98FE355
S1130D7088B9E0918D01F0E0E15AFE4F80818BB992
S1130D8087E08EB980918D018A50853038F48FEFD9
S1130D9085B99FE398B98BB987E08EB980918D01AD
S1130DA08F50823068F48FEF85B98FE388B9E09172
S1130DB08D01F0E0E15AFE4F80818BB987E08EB956
S1130DC080918D01813141F48EEF85B98FE388B92B
S1130DD08FEF8BB987E08EB9E0918D018EEE8E0F87
S1130DE0833058F4F0E0E959FE4F808185B98FE3F0
S1130DF088B98FEF8BB987E08EB980918D018531E9
S1130E0039F48FEF85B99FE398B98BB987E08EB930
S1130E10E0918D018AEE8E0F833058F4F0E0E959A9
S1130E20FE4F808185B98FE388B98FEF8BB987E056
S1130E308EB980918D0190E0019669E170E00E9485
S1130E40CD1F80938D0108958FEF85B99FE398B9E5
S1130E508BB987E08EB9089580918D01833038F481
S1130E608FEF85B99FE398B98BB987E08EB98091EC
S1130E708D018350833038F48FEF85B99FE398B99F
S1130E808BB987E08EB980918D01863039F48FEF6C
S1130E9085B99FE398B98BB987E08EB980918D01AC
S1130EA08750823038F48FEF85B99FE398B98BB9B6
S1130EB087E08EB980918D018950823038F48FEFAC
S1130EC085B99FE398B98BB987E08EB980918D017C
S1130ED08B50833068F48FEF85B98FE388B9E09144
S1130EE08D01F0E0E15AFE4F80818BB987E08EB925
S1130EF080918D018E50833038F48FEF85B99FE354
S1130F0098B98BB987E08EB980918D01813139F41C
S1130F108FEF85B99FE398B98BB987E08EB980913B
S1130F208D018251843038F48FEF85B99FE398B9ED
S1130F308BB987E08EB980918D018651833038F466
S1130F408FEF85B99FE398B98BB987E08EB980910B
S1130F508D0190E0019669E170E00E94CD1F8093BD
S1130F608D01089580918D01833038F48FEF85B918
S1130F709FE398B98BB987E08EB980918D01835036
S1130F80833038F48FEF85B99FE398B98BB987E044
S1130F908EB980918D01863039F48FEF85B99FE346
S1130FA098B98BB987E08EB980918D0187508230D2
S1130FB038F48FEF85B99FE398B98BB987E08EB980
S1130FC080918D01893039F48FEF85B99FE398B909
S1130FD08BB987E08EB980918D018A3069F48FEFE7
S1130FE085B98FE388B9E0918D01F0E0E15AFE4FB5
S1130FF080818BB987E08EB980918D018B508330CD
S113100068F48FEF85B98FE388B9E0918D01F0E042
S1131010E15AFE4F80818BB987E08EB980918D01B2
S11310208E3069F48FEF85B98FE388B9E0918D0133
S1131030F0E0E15AFE4F80818BB987E08EB9809150
S11310408D018F50823038F48FEF85B99FE398B9C2
S11310508BB987E08EB980918D01813139F48FEF9E
S113106085B99FE398B98BB987E08EB980918D01DA
S11310708251843038F48FEF85B99FE398B98BB9E6
S113108087E08EB980918D018651833038F48FEFDB
S113109085B99FE398B98BB987E08EB980918D01AA
S11310A090E0019669E170E00E94CD1F80938D016C
S11310B0089580918D01833038F48FEF85B99FE3D3
S11310C098B98BB987E08EB980918D0183508330B4
S11310D038F48FEF85B99FE398B98BB987E08EB95F
S11310E080918D01863039F48FEF85B99FE398B9EB
S11310F08BB987E08EB980918D018750823038F4A6
S11311008FEF85B99FE398B98BB987E08EB9809149
S11311108D018950823068F48FEF85B98FE388B9E7
S1131120E0918D01F0E0E15AFE4F80818BB987E0B8
S11311308EB980918D018B50833068F48FEF85B91F
S11311408FE388B9E0918D01F0E0E15AFE4F808190
S11311508BB987E08EB980918D018E50823068F40E
S11311608FEF85B98FE388B9E0918D01F0E0E15A02
S1131170FE4F80818BB987E08EB980918D018031DB
S113118039F48FEF85B99FE398B98BB987E08EB9AD
S113119080918D01813139F48FEF85B99FE398B93E
S11311A08BB987E08EB980918D018251843038F4F7
S11311B08FEF85B99FE398B98BB987E08EB9809199
S11311C08D018651833038F48FEF85B99FE398B948
S11311D08BB987E08EB980918D0190E0019669E129
S11311E070E00E94CD1F80938D01089580918D0140
S11311F0833038F48FEF85B99FE398B98BB987E0D2
S11312008EB980918D018350833038F48FEF85B986
S11312109FE398B98BB987E08EB980918D018630B0
S113122039F48FEF85B99FE398B98BB987E08EB90C
S113123080918D01873039F48FEF85B99FE398B998
S11312408BB987E08EB980918D01883069F48FEF76
S113125085B99FE398B98BB9E0918D01F0E0E65A26
S1131260FE4F808187708EB980918D0189508230C4
S113127068F48FEF85B98FE388B9E0918D01F0E0D0
S1131280E15AFE4F80818BB987E08EB980918D0140
S11312908B50833068F48FEF85B98FE388B9E09180
S11312A08D01F0E0E15AFE4F80818BB987E08EB961
S11312B080918D018E50833068F48FEF85B98FE370
S11312C088B9E0918D01F0E0E15AFE4F80818BB93D
S11312D087E08EB980918D01813139F48FEF85B922
S11312E09FE398B98BB987E08EB980918D018251C3
S11312F0843038F48FEF85B99FE398B98BB987E0D0
S11313008EB980918D018651833038F48FEF85B981
S11313109FE398B98BB987E08EB980918D0190E0F5
S1131320019669E170E00E94CD1F80938D010895BC
S113133080918D01833038F48FEF85B99FE398B99C
S11313408BB987E08EB980918D018350833038F456
S11313508FEF85B99FE398B98BB987E08EB98091F7
S11313608D01863039F48FEF85B99FE398B98BB935
S113137087E08EB980918D018750823068F48FEFB9
S113138085B99FE398B98BB9E0918D01F0E0E65AF5
S1131390FE4F808187708EB980918D018950823093
S11313A068F48FEF85B98FE388B9E0918D01F0E09F
S11313B0E15AFE4F80818BB987E08EB980918D010F
S11313C08B50833068F48FEF85B98FE388B9E0914F
S11313D08D01F0E0E15AFE4F80818BB987E08EB930
S11313E080918D018E50833068F48FEF85B98FE33F
S11313F088B9E0918D01F0E0E15AFE4F80818BB90C
S113140087E08EB980918D01813141F48EEF85B9E9
S11314108FE388B98FEF8BB987E08EB980918D0106
S11314208251843038F48FEF85B99FE398B98BB932
S113143087E08EB980918D018651833038F48FEF27
S113144085B99FE398B98BB987E08EB980918D01F6
S113145090E0019669E170E00E94CD1F80938D01B8
S1131460089580918D01833038F48FEF85B99FE31F
S113147098B98BB987E08EB980918D018350833000
S113148038F48FEF85B99FE398B98BB987E08EB9AB
S113149080918D01863039F48FEF85B99FE398B937
S11314A08BB987E08EB980918D018750823068F4C2
S11314B08FEF85B99FE398B98BB9E0918D01F0E086
S11314C0E65AFE4F808187708EB980918D018950D4
S11314D0823068F48FEF85B98FE388B9E0918D018C
S11314E0F0E0E15AFE4F80818BB987E08EB980919C
S11314F08D018B50833068F48FEF85B98FE388B901
S1131500E0918D01F0E0E15AFE4F80818BB987E0D4
S11315108EB980918D018E50833068F48FEF85B938
S11315208FE388B9E0918D01F0E0E15AFE4F8081AC
S11315308BB987E08EB980918D01813141F48EEFB2
S113154085B98FE388B98FEF8BB987E08EB9809125
S11315508D018251843038F48FEF85B99FE398B9B7
S11315608BB987E08EB9E0918D018AEE8E0F8330BE
S113157058F4F0E0E959FE4F808185B98FE388B9CA
S11315808FEF8BB987E08EB980918D0190E0019641
S113159069E170E00E94CD1F80938D0108958091D0
S11315A08D01833038F48FEF85B99FE398B98BB9F7
S11315B087E08EB980918D018350833038F48FEFAA
S11315C085B99FE398B98BB987E08EB980918D0175
S11315D08650833068F48FEF85B99FE398B98BB94F
S11315E0E0918D01F0E0E65AFE4F808187708EB95C
S11315F080918D018950823068F48FEF85B98FE333
S113160088B9E0918D01F0E0E15AFE4F80818BB9F9
S113161087E08EB980918D018B50833068F48FEF11
S113162085B98FE388B9E0918D01F0E0E15AFE4F6E
S113163080818BB987E08EB980918D018E50833083
S113164068F48FEF85B98FE388B9E0918D01F0E0FC
S1131650E15AFE4F80818BB987E08EB9E0918D010C
S11316608FEE8E0F823058F4F0E0E959FE4F8081FE
S113167085B98FE388B98FEF8BB987E08EB98091F4
S11316808D018351833038F48FEF85B99FE398B986
S11316908BB987E08EB9E0918D018AEE8E0F83308D
S11316A058F4F0E0E959FE4F808185B98FE388B999
S11316B08FEF8BB987E08EB980918D0190E0019610
S11316C069E170E00E94CD1F80938D01089580919F
S11316D08D01833038F48FEF85B99FE398B98BB9C6
S11316E087E08EB980918D018350823038F48FEF7A
S11316F085B99FE398B98BB987E08EB980918D0144
S1131700853069F49FEF95B9E0918D01F0E0E059DF
S1131710FE4F80818F7388B99BB987E08EB9809121
S11317208D018650833068F48FEF85B99FE398B9B3
S11317308BB9E0918D01F0E0E65AFE4F808187700D
S11317408EB980918D018950823068F48FEF85B90C
S11317508FE388B9E0918D01F0E0E15AFE4F80817A
S11317608BB987E08EB980918D018B50833068F4FA
S11317708FEF85B98FE388B9E0918D01F0E0E15AEC
S1131780FE4F80818BB987E08EB980918D018E5098
S1131790833068F48FEF85B98FE388B9E0918D01C8
S11317A0F0E0E15AFE4F80818BB987E08EB9E09179
S11317B08D018FEE8E0F833058F4F0E0E959FE4F1F
S11317C0808185B98FE388B98FEF8BB987E08EB9B3
S11317D080918D018451823038F48FEF85B99FE375
S11317E098B98BB987E08EB9E0918D018AEE8E0F9E
S11317F0833058F4F0E0E959FE4F808185B98FE3D6
S113180088B98FEF8BB987E08EB980918D0190E014
S1131810019669E170E00E94CD1F80938D010895C7
S113182080918D01833038F48FEF85B99FE398B9A7
S11318308BB987E08EB980918D01833039F48FEFB5
S113184085B99FE398B98BB987E08EB980918D01F2
S11318508450823068F49FEF95B9E0918D01F0E0F7
S1131860E059FE4F80818F7388B99BB987E08EB9A8
S113187080918D018650833068F48FEF85B99FE3A2
S113188098B98BB9E0918D01F0E0E65AFE4F808162
S113189087708EB980918D018950823068F48FEF02
S11318A085B98FE388B9E0918D01F0E0E15AFE4FEC
S11318B080818BB987E08EB980918D018B50833004
S11318C068F48FEF85B98FE388B9E0918D01F0E07A
S11318D0E15AFE4F80818BB987E08EB980918D01EA
S11318E08E50833068F48FEF85B98FE388B9E09127
S11318F08D01F0E0E15AFE4F80818BB987E08EB90B
S1131900E0918D018FEE8E0F843058F4F0E0E959A8
S1131910FE4F808185B98FE388B98FEF8BB987E05B
S11319208EB980918D01853139F48FEF85B99FE3AC
S113193098B98BB987E08EB9E0918D018AEE8E0F4C
S1131940833058F4F0E0E959FE4F808185B98FE384
S113195088B98FEF8BB987E08EB980918D0190E0C3
S1131960019669E170E00E94CD1F80938D01089576
S113197080918D01833038F48FEF85B99FE398B956
S11319808BB987E08EB980918D018350833068F4E0
S11319909FEF95B9E0918D01F0E0E059FE4F808111
S11319A08F7388B99BB987E08EB980918D01865079
S11319B0833068F48FEF85B99FE398B98BB9E091D0
S11319C08D01F0E0E65AFE4F808187708EB98091D8
S11319D08D018950823068F48FEF85B98FE388B91F
S11319E0E0918D01F0E0E15AFE4F80818BB987E0F0
S11319F08EB980918D018B50833068F48FEF85B957
S1131A008FE388B9E0918D01F0E0E15AFE4F8081C7
S1131A108BB987E08EB980918D018E50833068F444
S1131A208FEF85B98FE388B9E0918D01F0E0E15A39
S1131A30FE4F80818BB987E08EB9E0918D018FEEE6
S1131A408E0F853058F4F0E0E959FE4F808185B956
S1131A508FE388B98FEF8BB987E08EB9E0918D0160
S1131A608AEE8E0F833058F4F0E0E959FE4F8081FE
S1131A7085B98FE388B98FEF8BB987E08EB98091F0
S1131A808D0190E0019669E170E00E94CD1F809382
S1131A908D01089580918D01833068F49FEF95B98D
S1131AA0E0918D01F0E0E059FE4F80818F7388B999
S1131AB09BB987E08EB980918D018350833068F49F
S1131AC09FEF95B9E0918D01F0E0E059FE4F8081E0
S1131AD08F7388B99BB987E08EB980918D01865048
S1131AE0833068F48FEF85B99FE398B98BB9E0919F
S1131AF08D01F0E0E65AFE4F808187708EB98091A7
S1131B008D018950823068F48FEF85B98FE388B9ED
S1131B10E0918D01F0E0E15AFE4F80818BB987E0BE
S1131B208EB980918D018B50833068F48FEF85B925
S1131B308FE388B9E0918D01F0E0E15AFE4F808196
S1131B408BB987E08EB980918D018E50833068F413
S1131B508FEF85B98FE388B9E0918D01F0E0E15A08
S1131B60FE4F80818BB987E08EB9E0918D018FEEB5
S1131B708E0F853058F4F0E0E959FE4F808185B925
S1131B808FE388B98FEF8BB987E08EB9E0918D012F
S1131B908AEE8E0F833058F4F0E0E959FE4F8081CD
S1131BA085B98FE388B98FEF8BB987E08EB98091BF
S1131BB08D0190E0019669E170E00E94CD1F809351
S1131BC08D01089580918D01863068F49FEF95B959
S1131BD0E0918D01F0E0E059FE4F80818F7388B968
S1131BE09BB987E08EB980918D018650833068F46B
S1131BF08FEF85B99FE398B98BB9E0918D01F0E03F
S1131C00E65AFE4F808187708EB980918D0189508C
S1131C10883068F48FEF85B98FE388B9E0918D013E
S1131C20F0E0E15AFE4F80818BB987E08EB9E091F4
S1131C308D018FEE8E0F883058F4F0E0E959FE4F95
S1131C40808185B98FE388B98FEF8BB987E08EB92E
S1131C5080918D01815080938D01873148F085E119
S1131C6080938D01809186018F5F80938601089512
S1131C70813031F480938B018093870180938801B4
S1131C800895E0918B018E2F90E0FC013197EA31A9
S1131C90F10508F084C0E65AFF4F0C94E11F9091BF
S1131CA0000180918C01981304C00E94EC001092F2
S1131CB08C018091890190918A01019690938A0107
S1131CC08093890180918C018F5F80938C010895AA
S1131CD08091890190918A01019690938A01809361
S1131CE08901883E934009F05AC081E080938B01BA
S1131CF010928A011092890108950E944C0108955E
S1131D000E94F00108950E94420208950E94C202B6
S1131D1008950E94480308950E94BC0308950E94F8
S1131D20300408950E94C20408950E942505089570
S1131D300E94DA0508950E942407089580918C0179
S1131D408F3021F40E94E20D10928C0180918C015D
S1131D508F5F80938C0108950E94710608950E94FC
S1131D602C0708950E94B20708950E945908089507
S1131D700E94F60808950E94980908950E94310A65
S1131D8008950E94CF0A08950E94670B08950E9447
S1131D90100C08950E94B80C08950E944A0D0895ED
S1131DA08AB18FEF8AB994B184B997B19F6397B917
S1131DB09DB197609DB99BB18BB995B185B988B137
S1131DC08F6388B98EB187608EB910928D0110929D
S1131DD08E0181E080938B01089580E180938B01D3
S1131DE0AFE5BAEE1197F1F700C0000091E19093CE
S1131DF08B01EFE5FAEE3197F1F700C0000022E124
S1131E0020938B01AFE5BAEE1197F1F700C0000003
S1131E1033E130938B01EFE5FAEE3197F1F700C02F
S1131E20000044E140938B01AFE5BAEE1197F1F75E
S1131E3000C0000055E150938B01EFE5FAEE3197B5
S1131E40F1F700C0000066E160938B01AFE5BAEEE4
S1131E501197F1F700C0000077E170938B01EFE573
S1131E60FAEE3197F1F700C00000E8E1E0938B014E
S1131E70AFE5BAEE1197F1F700C00000F9E1F09375
S1131E808B01AFE5BAEE1197F1F700C00000AAE1AB
S1131E90A0938B01AFE5BAEE1197F1F700C00000F3
S1131EA0F0938B01AFE5BAEE1197F1F700C0000093
S1131EB0E0938B01EFE5FAEE3197F1F700C00000F3
S1131EC070938B01AFE5BAEE1197F1F700C00000F3
S1131ED060938B01EFE5FAEE3197F1F700C0000053
S1131EE050938B01AFE5BAEE1197F1F700C00000F3
S1131EF040938B01EFE5FAEE3197F1F700C0000053
S1131F0030938B01AFE5BAEE1197F1F700C00000F2
S1131F1020938B01EFE5FAEE3197F1F700C0000052
S1131F2090938B01AFE5BAEE1197F1F700C0000072
S1131F3080938B01EFE5FAEE3197F1F700C00000D2
S1131F4008950E94E0000E94ED0E8DE080938D01C3
S1131F508EE080938B01089549E2849F412D1124E2
S1131F60E42FE295EF7024E6E29F801911244DECF2
S1131F70849F412D1124942F969596959695392FEB
S1131F80330F232F220F220F230F821BEE2309F47A
S1131F90CBC04E2F50E0FA013197E930F10540F5FE
S1131FA0EC58FF4F0C94E11F24E020938B01BFC039
S1131FB025E020938B01BBC026E020938B01B7C0A2
S1131FC027E020938B01B3C028E020938B01AFC09E
S1131FD029E020938B01ABC02AE020938B01A7C09A
S1131FE02BE020938B01A3C02CE020938B019FC096
S1131FF03FEF43ED20E3315040402040E1F700C083
S113200000002DE020938B013FEF44E32CE031509E
S113201040402040E1F700C00000992351F0492FCF
S113202050E04A30510560F5FA01E358FF4F0C9433
S1132030E11F93E090938B0123C094E090938B0174
S11320401FC095E090938B011BC096E090938B0189
S113205017C097E090938B0113C098E090938B0185
S11320600FC099E090938B010BC09AE090938B0181
S113207007C09BE090938B0103C09CE090938B017D
S11320803FEF43ED90E3315040409040E1F700C012
S113209000009DE090938B012FEF34E34CE021503E
S11320A030404040E1F700C0000090E08A309105E4
S11320B060F5FC01E957FF4F0C94E11F83E0809326
S11320C08B0123C084E080938B011FC085E0809343
S11320D08B011BC086E080938B0117C087E080933F
S11320E08B0113C088E080938B010FC089E080933B
S11320F08B010BC08AE080938B0107C08BE0809337
S11321008B0103C08CE080938B018FEF93ED20E370
S1132110815090402040E1F700C0000010928D01F2
S11321208EE080938B010895911179CFBECF3FEF5C
S113213043ED20E3315040402040E1F700C000006F
S11321402DE020938B013FEF44E32CE031504040DD
S11321502040E1F700C00000911161CF6ACF1092D6
S11321608C0110928A01109289010E94E000109261
S11321708E010E94A10F8AE58093000108958FE0EB
S113218080938B012FE78FE492E1215080409040AF
S1132190E1F700C000008DE080938B012FE78FE40E
S11321A092E1215080409040E1F700C00000089582
S11321B06091000170E080E090E00E94911E2DEC9F
S11321C03CEC4CE65FE30E94381F0E944B1E0E94C9
S11321D0621E6093000108950E94B0000E94D00E18
S11321E00E94DA008FEF8093B40078940E94A10FCC
S11321F0C1E0D2E00E94D711809192018130D1F7E1
S11322001092920180E090E00E941F12882394F7BC
S1132210809188018111EECF80918D01823091F4FB
S113222080918E018F5F80938E01C0938801D0933B
S1132230870110928A0110928901D0938B010E9428
S1132240D810D8CF0E94BF10C093880180918D010F
S11322508093870180918E010E94AC0F0E94AF1081
S1132260C9CF1F920F920FB60F9211242F933F9351
S11322704F935F936F937F938F939F93AF93BF938A
S1132280EF93FF930E94410EFF91EF91BF91AF91A5
S11322909F918F917F916F915F914F913F912F917A
S11322A00F900FBE0F901F90189581E080939301BB
S11322B00895E0911D01F0911E018081882344F46A
S11322C0E091BF01F091C001808184608083089512
S11322D081E0809392010895882324F481E080931F
S11322E09101089586FD03C01092910108958F70A5
S11322F08E5F8093910108958DEB91E00E94A81C5C
S113230060E070E08BE491E00E94AB1D60E070E05F
S11323108BE491E00E94CA1D48EB51E060E08DE13E
S113232091E00E940113089588E087BDE5E6F0E09E
S113233080818F7E80837398E1ECF1E0108289E1E3
S113234091E09283818383E191E0948383838BE0A2
S113235091E0968385838FE091E09087878381E085
S113236091E09287818787E091E0948783878AEB65
S11323709AE1968785878CE791E1908B87878CE635
S113238091E1928B818B85E591E1948B838B168A05
S1132390158A89E591E1908F878BCF010E9481187E
S11323A00E947C189093C0018093BF01089580918E
S11323B09401813039F480E00E94E018811102C058
S11323C010929401809193018130C9F40E943019D4
S11323D0811103C00E94381903C080E80E946C1167
S11323E010929301E091BF01F091C001808182FFBE
S11323F006C081E08093940180818B7F808308955F
S113240081E08093940184E190E00E94F6120895A3
S113241080918F0190919001449739F4109290012A
S113242010928F010E940012089580918F01909163
S1132430900101969093900180938F0108959C01DF
S1132440220F331F820F931F880F991FE0912101E0
S1132450F0912201E80FF91F808108951F920F92D5
S11324600FB60F9211242F933F934F935F936F9363
S11324707F938F939F93AF93BF93EF93FF930E94A8
S11324800A1EFF91EF91BF91AF919F918F917F9120
S11324906F915F914F913F912F910F900FBE0F90CD
S11324A01F9018958DE3809365008FEF80936400EF
S11324B094B114B895B185B997B1907897B998B19A
S11324C09F6798B99AB11AB89BB18BB98DB1807FC7
S11324D08DB98EB18F608EB940E060E881E690E0FE
S11324E00E94791286E083BF15BE78940E94801200
S11324F008952FB7F894FC01608340832FBF08959B
S1132500E4E6F0E080818F7D808382E084BD95E005
S113251095BD80936E0080E00895CF92DF92FF9284
S11325200F931F93CF93DF93EC01AE81BF81EB0137
S1132530CC0FDD1FC60FD71FCA0FDB1FFA80FC01AB
S113254044815581E6E0E69F9001E79F300D112418
S11325508A01020F131FF80122813381F9012181BD
S11325603281F80104811581201B310BE8812E1B77
S11325703109EC01EA81FB8100811181FA0140E01B
S113258050E04017510739F146175707F9F01296F2
S11325908C911297F8121AC0808185588230E8F025
S11325A0C480D58082819381EC0189819A81C81687
S11325B0D90660F48C199D09CC91D0E0C817D907CD
S11325C028F48C1B9D0B2817390738F04F5F5F4F99
S11325D013963696D6CF80E001C081E0DF91CF918B
S11325E01F910F91FF90DF90CF9008952091950156
S11325F030919601820F931F9093960180939501D9
S113260008950097D9F041155105C1F026E0629F65
S1132610B0011124DC011496ED91FC911597E60F9D
S1132620F71F21E0208314968D919C911597FC014E
S1132630E60FF71F5383428380E008958BE00895EB
S11326402F923F924F925F926F927F928F929F92BE
S1132650AF92BF92CF92DF92EF92FF920F931F93AC
S1132660CF93DF93009709F47DC3EC01A12CB12C27
S1132670812C912C212CD12C33E0C32E45E8642EDF
S113268056E8752E67E0362E72E0472EE8E05E2E9F
S1132690EA81FB81808191818816990608F0A5C1A1
S11326A07501EE0CFF1C0C811D810E0D1F1DD80140
S11326B08C91843009F4A2C038F4823001F108F01E
S11326C049C0813059F08AC1853809F4C4C08638BC
S11326D009F4F8C0873009F081C139C1D8011296D4
S11326E0ED91FC91139780818E7109F069C14C9230
S11326F08C819D81FC01EE0DFF1D518261C1F801A9
S11327002181222329F10280F381E02D253020F05C
S113271081819281D8010EC0D80114968D919C912B
S11327201597418152818417950769F04817590715
S113273030F4019715969C938E93149704C00196D8
S1132740F801958384832150D80111962C9338C1C4
S1132750F80130C1D80114962D913C911597129629
S11327608D919C911397DC0111964D915C91129778
S11327702417350709F432C18E819F81421753070C
S1132780E0F4241B350BDC01AA0DBB1D8C9190E0F9
S1132790058002C0959587950A94E2F79927281732
S11327A0390708F41BC18481882309F417C1F8018F
S11327B03082EA81FB8124811AC0FC01EA0DFB1DF1
S11327C0421B530B808190E04817590708F406C157
S11327D08281882331F0B401CE010E948D128111CF
S11327E0FDC0E4E0D801EC93EA81FB8122818C8175
S11327F09D81FC01EE0DFF1D2183E2C0D8011496DA
S11328002D913C9115971296ED91FC91139781812E
S113281092818217930710F4CC92D7C0EE81FF8186
S1132820EA0DFB1D821B930B208130E0281739072A
S113283008F0C9C08281882331F0B401CE010E941E
S11328408D128111CBC0F8018181882309F468C0FD
S113285081508183B5C0A881B981808513968C93FA
S1132860EC81FD81EE0DFF1D44815581A281B38170
S113287011968D919C91129784179507C0F0AE81A3
S1132880BF81AA0DBB1D6C91262F30E011967C915F
S11328907F5F02C0359527957A95E2F7841B950BE7
S11328A0621B262F30E02817390708F495C0708280
S11328B0EA81FB8122818C819D81FC01EE0DFF1D4B
S11328C0218342C0D80114966D917C91159712967C
S11328D0ED91FC911397218132812617370758F423
S11328E011968C911197811102C0CC9275C08150C0
S11328F0F801818371C0EE81FF81EA0DFB1D8081A7
S1132900482F50E091819F5F02C0559547959A9555
S1132910E2F7261B370B841B90E08217930760F4C1
S1132920D8016C92EA81FB8123818C819D81FC0119
S1132930EE0DFF1D218350C0F8018181811102C079
S1132940C0824AC0815081832224239439C0D80193
S113295014962D913C91159712968D919C911397F5
S1132960DC0111968D919C9112978217930758F56B
S1132970281B390BAE81BF81AA0DBB1D8C9190E041
S1132980058002C0959587950A94E2F79927281740
S11329903907C8F0D80111968C91119781110CC098
S11329A0E1E0EC938C819D81FC01EE0DFF1D028022
S11329B0F381E02DC08212C08150D80111968C930E
S11329C0DD24D3940BC0F801C0828C819D81FC016D
S11329D0EE0DFF1D118202C022242394FFEF8F1AF3
S11329E09F0A83E0A80EB11C53CEE881F98180814F
S11329F087FF23C040E050E020E030E0EA81FB8123
S1132A00808191812817390798F4EC81FD81E40FC6
S1132A10F51FA281B3818C9180FD05C09081977FC1
S1132A2011F081608C932F5F3F4F4A5F5F4FE6CF79
S1132A30E881F98180818F778083D11007C0E88194
S1132A40F98121106FC080818E7F6EC0EA81FB8185
S1132A5081858823A1F3E881F9818081806880835E
S1132A60EA81FB818185813051F740E050E020E02C
S1132A7030E096E0D92EEA81FB81608171812617CE
S1132A803707E8F60C811D81FA01EE0FFF1FE00FF6
S1132A90F11F8081982F977FA1F1853811F0833041
S1132AA0B1F5EE80FF80D701A40FB51F1296BC903C
S1132AB0BB2039F180E090E0C12C86179707F8F429
S1132AC028173907D1F0D89ED001D99EB00D112412
S1132AD0A00FB11FAC91A43011F0A63871F4DC0141
S1132AE0AA0FBB1FA80FB91FAE0DBF1D1296AC9144
S1132AF0BA1203C0CB01CC24C3940196DECFC1101B
S1132B0006C00280F381E02D80818E7F05C00280A3
S1132B10F381E02D8081816080832F5F3F4F4D5F83
S1132B205F4FA9CF808181608083809195019091CE
S1132B309601E881F98121813281A90148535F4FCF
S1132B404817590738F4821B930BAA24A394A3E0D3
S1132B50BA2E44C08217930710F080E004C1821B90
S1132B60930B0197893C9105C0F3EFCF885C9109E1
S1132B70E881F9812181328128533F4F32832183B7
S1132B802381211196C02481222311F02150248312
S1132B90E881F9812581222311F0215025838A803F
S1132BA09B80D40116962C91169721111BC08A8004
S1132BB09B80F4012781211148C0EA81FB81238194
S1132BC0222361F020E030E0A0E0B0E0EA81FB8164
S1132BD040815181A417B50708F46EC0893C910562
S1132BE028F6BBCF08811981F80124812111DFCF98
S1132BF0ED90FC9060E070E040E050E04E155F0521
S1132C00F1F0EC81FD81E60FF71F2081233011F0F4
S1132C10283081F424813581C280D380D601119675
S1132C20CD90DC9012972C153D0520F42F5F3F4F7B
S1132C30358324834F5F5F4F6A5F7F4FDFCFF4019B
S1132C402681D80114962C93B2CF08811981D8011A
S1132C5015962C912111B1CFE080F18060E070E0F5
S1132C6040E050E04E155F05F1F0EC81FD81E60F88
S1132C70F71F2081233011F0283081F4248135811D
S1132C80C280D380D6011196CD90DC901297C216E3
S1132C90D30620F421503109358324834F5F5F4FDD
S1132CA06A5F7F4FDFCFF4012781D80115962C93FB
S1132CB084CF2150238381CFA901440F551FEC8178
S1132CC0FD81E40FF51F6081653809F047C061811B
S1132CD0662319F06150618341C0A0826C817D81BB
S1132CE0FB01E40FF51F0280F381E02DB082EE8139
S1132CF0FF81E20FF31FD280DD2081F140E050E03C
S1132D0000E010E0EA81FB816081718106171707FA
S1132D1028F5EE81FF81E40FF51F6281D61219C0F8
S1132D20BA01660F771FEC81FD814F01860E971E55
S1132D30F401E280F380F701F080F0FE0AC0F401B0
S1132D40A082EC81FD81E60FF71F0280F381E02D64
S1132D50B0820F5F1F4F4D5F5F4FD4CF11962D5F31
S1132D603F4F34CF8BE0DF91CF911F910F91FF90B4
S1132D70EF90DF90CF90BF90AF909F908F907F9017
S1132D806F905F904F903F902F9008952F923F92B5
S1132D904F925F926F927F928F929F92AF92BF9267
S1132DA0CF92DF92EF92FF920F931F93CF93DF9313
S1132DB0CDB7DEB72C970FB6F894DEBF0FBECDBFEC
S1132DC02C01009709F463C1DC0112962D903C900C
S1132DD01397F1017280ED91FC916180D1011796F6
S1132DE08C911797E72CF12CFC82EB82262D30E096
S1132DF0882309F4A9C08D909C905701AA0CBB1C90
S1132E006901CC0CDD1CE12CF12C40E050E000E029
S1132E1010E00815190549F1848195818E0D9F1DD7
S1132E20DC0111966D917C911297828193818C0DB6
S1132E309D1DDC018D919C918617970728F4DB0179
S1132E40A81BB90BCD0105C06817790730F4861BA0
S1132E50970B4817590708F4AC010F5F1F4FB5E0F3
S1132E60EB0EF11CCA0CDB1CD4CFD10118968C914B
S1132E70682F70E06417750708F057C00680F78163
S1132E80E02DE20FF31F80818F5F8083F201408188
S1132E905181A281B381FA01818146815781FA016E
S1132EA0E80FF11D908119968C91199798134CC0D5
S1132EB015960D911C911697D801A20FB31F8C91F2
S1132EC0882311F0815001C08FE0F80161E070E0C7
S1132ED040E050E0EB80FC804E155F0560F4421743
S1132EE0530729F09081981302C060E070E04F5FAF
S1132EF05F4F3196EFCF672B19F38C9380E090E00E
S1132F00D2011296ED91FC911397428150E08417FF
S1132F109507D0F4D201ED91FC910680F781E02D64
S1132F20E80FF91F10820196EBCF869590E04817C1
S1132F30590750F40680F781E02DE20FF31F8081DA
S1132F40882311F081508083F2010280F381E02D07
S1132F50FA83E983EB80FC80EE0CFF1CFC82EB829D
S1132F60B901660F771F7E836D83D72CD694D394D3
S1132F7040E050E020E030E0E12CF12C8D2D90E099
S1132F8098878F83A981BA818D919C91E816F9065F
S1132F9008F068C0D201ED91FC91A481B581BD0116
S1132FA0620F731F7C876B87DB018C918C7109F036
S1132FB04FC011966D917C91129782819381840FF9
S1132FC0951FED81FE81E80FF91F71836083A12CA9
S1132FD0B12CC12CC714C0F5FC01EC0DF11DEC0D96
S1132FE0F11D9A87898799249394812C312C731429
S1132FF0C9F0C31479F0A985BA850D911C9160813B
S113300071810617170711F4939404C00617170764
S113301008F48394339469857A856E5F7F4F7A8749
S11330206987E5CF9D1458F48D1460F4692D70E020
S1133030680D711DAF81B8856A177B071CF0A080ED
S1133040B180C72CC394C6CFEB85FC85B282A18224
S1133050FFEFEF1AFF0A2B5F3F4F6B817C81460F16
S1133060571F90CF6394671408F0612CE981FA81AB
S1133070A381B48185819681FC01E60DF11D8081D7
S11330808C93D201ED91FC91618280E001C08BE0D0
S11330902C960FB6F894DEBF0FBECDBFDF91CF9153
S11330A01F910F91FF90EF90DF90CF90BF90AF9062
S11330B09F908F907F906F905F904F903F902F9054
S11330C0089595E090939901E091E001F091E10178
S11330D00188F289E02D309709F00994FFCFE0913F
S11330E0E001F091E1010388F489E02D309709F0C3
S11330F0099480E40C9461188091E0019091E101BD
S11331000895CF939093E1018093E0018091990118
S1133110853039F0823028F080919701882371F14D
S113312040C010929701C0E0A091E001B091E1018C
S11331308C2F90E0880F991F1196ED91FC911297B6
S1133140E80FF91F0190F081E02D309729F31796CD
S11331502D913C911897D901A80FB91F8D919C917D
S11331600995882329F0809197018F5F80939701B7
S1133170CF5F809197018823B9F2CECF82E080930C
S11331809901E091E001F091E1010784F089E02DDB
S1133190309711F0099508C085E08093990181E08A
S11331A001C08F5F8093970180919701882331F04C
S11331B01092970180E8CF910C946118CF910895F3
S11331C01F93CF93DF93182FA091E001B091E101F9
S11331D015962D913C911697D0E0F901ED0FF11D54
S11331E0ED0FF11D80819181892B11F0DF5FF5CF07
S11331F053968D919C915497892B49F1812F90E09E
S1133200880F991FF901E80FF91F0190F081E02D53
S11332103097E9F01B962D913C911C97D901A80F8A
S1133220B91F8D919C91009791F06FE678E1099513
S1133230C82F811106C083E08093990110929801F0
S113324003C082E0809399011D1728F001C0C2E0F9
S113325082E80E9461188C2FDF91CF911F9108950D
S1133260E091E001F091E1010584F685E02D0994F7
S11332701F93CF93DF931F92CDB7DEB71982E091EE
S1133280E001F091E1010588F689E02D309749F0DD
S113329082E080939901CE010196099583E08093A1
S11332A099018091970181112CC01981111129C0B4
S11332B084E080939901A091E001B091E1018091B3
S11332C0980190E0880F991F1396ED91FC91149743
S11332D0E80FF91F0190F081E02D19962D913C9192
S11332E01A97309781F0D901A80FB91F8D919C913D
S11332F0099581113EC0809198018F5F8093980158
S1133300DACF10E03DC010929801F901E10FF11DF0
S1133310E10FF11D0190F081E02D309759F00190FB
S1133320F081E02D808187FF03C09C9194609C9381
S11333301F5FEBCF1093980182E080939901579619
S1133340ED91FC915897309711F0099505C0809143
S113335097018F5F8093970110E0809197018823F4
S113336079F0109297018091980180640E9461180D
S113337007C0809197018F5F8093970113E0EDCF91
S1133380812F0F90DF91CF911F9108958091A1011A
S11333909091A201A091E201B091E301ED91FC9121
S11333A011974081518125E0289FB001299F700D1C
S11333B0112420E030E084179507A8F41496ED91C9
S11333C0FC911597E20FF31FE60FF71FE0812B5FC7
S11333D03F4FE0FD02C00196EECF9093A20180938F
S11333E0A10180E008951092A2011092A10181E050
S11333F008954AE0489F9001499F300D1124E091BF
S1133400E201F091E3010280F381E02DE20FF31F6A
S113341042814093F800E091E201F091E3010280DF
S1133420F381E02DE20FF31F43814093F900E09113
S1133430E201F091E3010280F381E02DE20FF31F3A
S113344044814093FA00E091E201F091E3010280AB
S1133450F381E02DE20FF31F40814093F200E091ED
S1133460E201F091E3010280F381E02DE20FF31F0A
S113347041814093F30065E0689FA001699F500D6E
S11334801124E091E201F091E3010480F581E02D43
S1133490E40FF51F83818093E500E091E201F09150
S11334A0E3010480F581E02DE40FF51F838194810D
S11334B088279F739093E600A091E201B091E30105
S11334C01496ED91FC911597E40FF51F808181FD11
S11334D0608314968D919C911597FC01E40FF51F60
S11334E080818C7171F41296ED91FC911397E20F27
S11334F0F31FE085E295EF70F0E0E058FE4F808125
S113350001C08FE38093E700E091E201F091E301D1
S11335100280F381E02DE20FF31F86818B3F10F4CC
S11335208C5F01C08FEF8093E800E091E201F0919D
S1133530E3010280F381E02DE20FF31F8781807F96
S11335409185892B8093E400E091E201F091E301FD
S113355082819381FC01E20FF31F87818F70809336
S1133560E10082E18093E0008091E9008160809332
S1133570E90008954F925F926F927F928F929F928B
S1133580AF92BF92CF92DF92EF92FF920F931F936D
S1133590CF93DF938091A001882309F431C1A091D6
S11335A0E201B091E301E090E401F090E501412CE7
S11335B0512C60E070E000E010E080E06624639449
S11335C091E8792EAA24AA94BB24B394CD90DC90DC
S11335D01197F601208131810217130708F00CC1FD
S11335E0E701299139917E011496ED91FC9115978B
S11335F0E60FF71F40814C7150E05695479556955C
S113360047954115510521F041305105C1F0EBC0FA
S113361012964D915C911397440D551DEA019885BE
S11336209F704985941710F4491B01C040E002C003
S1133630369527954A95E2F732832183D5C01296B1
S11336404D915C911397440D551DEA01098402C004
S1133650369527950A94E2F7328321834381548176
S11336602115D2E03D0720F02F5F314091E005C0E5
S1133670E501C21BD30B9E0190E0E601DA80D0E4A1
S1133680DD1205C036952795992319F009C09923B1
S113369039F04F3F9FE3590731F470828EE007C041
S11336A08824839401C0812C2A30310598F414961F
S11336B0ED91FC911597E60FF71F208127FF60829B
S11336C01496ED91FC911597E60FF71F5F735483E1
S11336D043838AC06A01CC24C0E3DC229D2C9294EB
S11336E0DFE09D226A01CC24DFE0DD229D2D6A010A
S11336F0C0EFCC22DD2454E0D694C7945A95E1F768
S11337005C2D4F70811032C0203D310560F0D3E054
S11337109D1649F093942F5C3109F6CF9F3041F008
S11337209F5F2551310926313105C0F79F3069F477
S113373093E0991202C09FE008C0939495E005C0FD
S11337405F3049F05F5F2250310923303105C0F703
S11337505F3009F05BC09F3009F454C09F5F55E0AF
S113376055C0992061F09A942F5C3109203D3105B0
S1133770C0F705C0992341F09150255131092631F4
S11337803105C0F791110CC0911002C090E008C03F
S11337909A949AE005C0552341F0515022503109C2
S11337A023303105C0F751110DC09923B9F191505F
S11337B05AE023303105D0F605C02330310558F1E5
S11337C04FE05FE0292D30E0322F22273295307F01
S11337D0392B242BC0E15C9F60011124C22AD32A17
S11337E0D482C38201C0FFCF0F5F1F4F6B5F7F4F37
S11337F0DAE04D0E511CEACE92E09093A00110C085
S113380083E00EC053E09516C1F25FE0233031052A
S113381008F07ACFD7CF5FE04FE0D4CF50E0D2CFDB
S1133820DF91CF911F910F91FF90EF90DF90CF9098
S1133830BF90AF909F908F907F906F905F904F90CC
S113384008958F929F92AF92BF92CF92DF92EF92A0
S1133850FF92CF93DF93009709F46CC0DC01ED91E4
S1133860FC91C080D180E12CF12CA0E0B0E040E0DC
S113387050E0BA0120E030E0AC15BD05B1F0EC0138
S1133880EA81FB81EE0DFF1DA080B1802A293B292E
S113389082809380A480B580482959296A297B298C
S11338A01196DAE0ED0EF11CE7CF411551056105E3
S11338B0710509F441C0E091A0016A017B01CC24A7
S11338C0EE24FF24DB01CA0188279927BB27E111D5
S11338D015C02093F0003093F1004093F400CD2CF8
S11338E0DE2CEF2CFF24C092F500CD01AA27BB27C4
S11338F08093F60081E08093A0011AC0E091F0006B
S11339002E2B2093F0002091F100232B2093F10023
S11339102091F400422B4093F4002091F5002D29CE
S11339202093F5002091F600822F8A2B8093F600D5
S113393080E003C08BE001C082E0DF91CF91FF9073
S1133940EF90DF90CF90BF90AF909F908F900895AD
S1133950009731F09093E5018093E40180E00895AD
S11339608BE00895CF93DF9300D000D0CDB7DEB7BE
S11339701092A4011092A5011092A6011092A70121
S11339806115710509F4DBC0009709F4D8C02091D2
S1133990A001222309F4D5C0243009F093C0109269
S11339A0A3018091E90080FF8BC02091E80030E002
S11339B0A6E0B0E00E94E71F6093A4017093A50104
S11339C08093A6019093A7012091E3002F70DC015E
S11339D0CB01820F911DA11DB11D8093A401909371
S11339E0A501A093A601B093A7012091E40027703C
S11339F004C0880F991FAA1FBB1F2A95D2F70E96E1
S1133A00A11DB11D8093A4019093A501A093A601CB
S1133A10B093A7012091E100237004C0880F991F7F
S1133A20AA1FBB1F2A95D2F722E0B695A7959795B2
S1133A3087952A95D1F78093A4019093A501A0932B
S1133A40A601B093A70119821A821B821C8221E06D
S1133A5049815A816B817C81481759076A077B0722
S1133A60B0F43091A301332329F089839A83AB8383
S1133A70BC8320E049815A816B817C814F5F5F4F19
S1133A806F4F7F4F49835A836B837C83E1CF22231B
S1133A90B9F08091E90080FF13C01092E0000000AB
S1133AA082E18093E000000081E08093E90080914E
S1133AB09C0190919D01019690939D0180939C019E
S1133AC081E042C09093E3018093E20170939B01F3
S1133AD060939A01DC01ED91FC918281803411F4B0
S1133AE088E003C0803879F58AE08093E200E091B1
S1133AF0E201F091E3010190F081E02D84818031B5
S1133B0008F080E18093E30081E084BB809374003B
S1133B101092A2011092A1010E94C61981110BC03A
S1133B2084E08093A0018091A1019091A2010E9460
S1133B30F91980E009C082E08093A00105C08BE000
S1133B4003C083E001C082E00F900F900F900F90AC
S1133B50DF91CF9108950097C9F0DC01ED91FC91BC
S1133B601197208131812617370790F045E0469F51
S1133B709001479F300D11241496ED91FC911597F7
S1133B80E20FF31F81E0808380E008958BE00895C5
S1133B9082E008950097D1F1DC01ED91FC91119739
S1133BA0208131812617370798F122811496ED91EF
S1133BB0FC911597203459F485E0869FD001879FA6
S1133BC0B00D1124AE0FBF1F84E392E00CC0203867
S1133BD081F485E0869FD001879FB00D1124AE0F3C
S1133BE0BF1F87E695E014969C938E93139780E00D
S1133BF001C082E095E0969F9001979F300D1124BB
S1133C00E20FF31F90819260908308958BE00895F2
S1133C1082E008951092E00081E08093A3018091F6
S1133C20EE006091EF002091A1013091A201A90161
S1133C30440F551FE091E401F091E501E40FF51FF5
S1133C4090E0962B9183808380919E0190919F01B7
S1133C50019690939F0180939E01892B21F41092E9
S1133C609D0110929C012F5F3F4F3093A20120933E
S1133C70A1010E94C619811109C084E08093A001AA
S1133C808091A1019091A2010C94F919E0919A01FB
S1133C90F0919B0109940E94191F90F09F3748F4FA
S1133CA0911116F40C94321F60E070E080E89FE3F9
S1133CB0089526F01B16611D711D811D0C94CE1EE6
S1133CC00C94E91E0E94FF1E88F09F5798F0B92FAC
S1133CD09927B751B0F0E1F0660F771F881F991F3D
S1133CE01AF0BA95C9F714C0B13091F00E94311F8F
S1133CF0B1E008950C94311F672F782F8827B85F9F
S1133D0039F0B93FCCF3869577956795B395D9F794
S1133D103EF490958095709561957F4F8F4F9F4F9E
S1133D200895E89409C097FB3EF4909580957095AA
S1133D3061957F4F8F4F9F4F9923A9F0F92F96E9F3
S1133D40BB279395F695879577956795B795F11168
S1133D50F8CFFAF4BB0F11F460FF1BC06F5F7F4F05
S1133D608F4F9F4F16C0882311F096E911C0772317
S1133D7021F09EE8872F762F05C0662371F096E820
S1133D80862F70E060E02AF09A95660F771F881FEF
S1133D90DAF7880F9695879597F90895882371F433
S1133DA0772321F09850872B762F07C0662311F4D0
S1133DB099270DC09051862B70E060E02AF09A9507
S1133DC0660F771F881FDAF7880F9695879597F9FE
S1133DD008959F3F31F0915020F48795779567952A
S1133DE0B795880F911D9695879597F9089557FD76
S1133DF09058440F551F59F05F3F71F04795880F55
S1133E0097FB991F61F09F3F79F0879508951216EB
S1133E1013061406551FF2CF4695F1DF08C0161697
S1133E2017061806991FF1CF869571056105089448
S1133E3008950E94FF1EA0F0BEE7B91788F4BB27BF
S1133E409F3860F41616B11D672F782F8827985F66
S1133E50F7CF869577956795B11D93959639C8F3F5
S1133E600895E894BB2766277727CB0197F908952F
S1133E700E944B1F0C94BC1F0E94AE1F38F00E947E
S1133E80B51F20F0952311F00C94A51F0C94AB1FC3
S1133E9011240C94321F0E94F71E70F3959FC1F3F6
S1133EA0950F50E0551F629FF001729FBB27F00DE4
S1133EB0B11D639FAA27F00DB11DAA1F649F662739
S1133EC0B00DA11D661F829F2227B00DA11D621F88
S1133ED0739FB00DA11D621F839FA00D611D221F42
S1133EE0749F3327A00D611D231F849F600D211D26
S1133EF0822F762F6A2F11249F5750409AF0F1F0A9
S1133F0088234AF0EE0FFF1FBB1F661F771F881F11
S1133F1091505040A9F79E3F510580F00C94A51F85
S1133F200C94321F5F3FE4F3983ED4F38695779563
S1133F306795B795F795E7959F5FC1F7FE2B880FB7
S1133F40911D9695879597F9089597F99F6780E84D
S1133F5070E060E008959FEF80EC089500240A94D7
S1133F601616170618060906089500240A94121650
S1133F701306140605060895092E0394000C11F483
S1133F80882352F0BB0F40F4BF2B11F460FF04C030
S1133F906F5F7F4F8F4F9F4F089597FB072E16F447
S1133FA0009407D077FD09D00E94F61F07FC05D0C6
S1133FB03EF4909581959F4F0895709561957F4F3C
S1133FC00895EE0FFF1F0590F491E02D0994A29F30
S1133FD0B001B39FC001A39F700D811D1124911DD9
S1133FE0B29F700D811D1124911D0895AA1BBB1B46
S1133FF051E107C0AA1FBB1FA617B70710F0A61BE5
S1134000B70B881F991F5A95A9F780959095BC0105
S10B4010CD010895F894FFCFDF
S11340185A32011D0100004B010000B21C00004B84
S1134028010000C61620130000211C0000AF01285F
S113403801DA01250114010001000400050014053A
S1134048140136013E010000A901B801B5010100BF
S1134058035F014801010F060001025B015101B829
S1134068010000800000000001000401008030000D
S11340780605030707070707FEFDFBF7EFDFBF7F0A
S11340883E3D3B372F1F3F3FFEFDFBF7EFDFBF7F72
S10940983F1C0B050301AF
S9030000FC
