:100000000C9486000C94A3000C94A3000C94A30001
:100010000C94A3000C94A3000C94A3000C94A300D4
:100020000C94A3000C94A3000C94A3000C94A300C4
:100030000C94A3000C94A3000C94AA000C940A093D
:100040000C94A3000C94A3000C94A3000C94A300A4
:100050000C94A3000C94A3000C94A3000C94A30094
:100060000C94A3000C94A3000C94A3000C94A30084
:100070000C94A3000C94A3000C94A3000C94A30074
:100080000C94A3000C94A3000C94A3000C94A30064
:100090000C94A3000C94700A0C94A3000C94A3007D
:1000A0000C94A3000C94A3000C94A3000C94A30044
:1000B0000C94A30066076A076E07720776077A0733
:1000C0007E0782078607AB07AF07B307B707BB07F3
:1000D000BF07C307C707CB07CF07F007F407F80729
:1000E000FC070008040808080C081008140829096F
:1000F00037094C094F095209550958095B095E092E
:100100006109640967096A096D097B0911241FBE29
:10011000CFEFD8E0DEBFCDBF11E0A0E0B1E0E8E96D
:10012000FDE202C005900D92A638B107D9F721E093
:10013000A6E8B1E001C01D92A63EB207E1F70E9419
:10014000CB080C94CA160C9400000E94940A0E94DA
:10015000D60908951F920F920FB60F9211242F9374
:100160003F934F935F936F937F938F939F93AF933F
:10017000BF93EF93FF930E944A0AA89AFF91EF91D1
:10018000BF91AF919F918F917F916F915F914F91AF
:100190003F912F910F900FBE0F901F901895EEE694
:1001A000F0E080818460808308958AB18FEF8AB9FE
:1001B00094B184B997B19F6397B99DB197609DB988
:1001C0009BB18BB995B185B988B18F6388B98EB170
:1001D00087608EB910928E0110928C0181E080931D
:1001E0008B0108958BB18FEF8BB995B185B988B12B
:1001F0008F6388B98EB187608EB9089580918E0122
:10020000863068F49FEF95B9E0918E01F0E0E159F6
:10021000FE4F80818F7388B99BB987E08EB980913A
:100220008E018650833068F48FEF85B99FE398B9CB
:100230008BB9E0918E01F0E0E75AFE4F8081877024
:100240008EB980918E018950883068F48FEF85B91E
:100250008FE388B9E0918E01F0E0E25AFE4F808191
:100260008BB987E08EB9E0918E018FEE8E0F8830CA
:1002700058F4F0E0EA59FE4F808185B98FE388B9E0
:100280008FEF8BB987E08EB980918E0190E0019657
:10029000E6E1F0E0BF010E948D169C0180938E0183
:1002A0008091870190E00296BF010E948D1633274E
:1002B0008217930711F410928801089580918E019E
:1002C000833068F49FEF95B9E0918E01F0E0E15939
:1002D000FE4F80818F7388B99BB987E08EB980917A
:1002E0008E018350833068F49FEF95B9E0918E01C1
:1002F000F0E0E159FE4F80818F7388B99BB987E0A8
:100300008EB980918E01863069F48FEF85B99FE3B5
:1003100098B98BB9E0918E01F0E0E75AFE4F8081E9
:1003200087708EB980918E018750823068F48FEF8C
:1003300085B99FE398B98BB9E0918E01F0E0E75A57
:10034000FE4F808187708EB980918E0189508230F6
:1003500068F48FEF85B98FE388B9E0918E01F0E002
:10036000E25AFE4F80818BB987E08EB980918E0171
:100370008B50833068F48FEF85B98FE388B9E091B3
:100380008E01F0E0E25AFE4F80818BB987E08EB992
:1003900080918E018E50833068F48FEF85B98FE3A2
:1003A00088B9E0918E01F0E0E25AFE4F80818BB96E
:1003B00087E08EB980918E01813141F48EEF85B94D
:1003C0008FE388B98FEF8BB987E08EB9E0918E010A
:1003D0008EEE8E0F843058F4F0E0EA59FE4F8081A3
:1003E00085B98FE388B98FEF8BB987E08EB980919B
:1003F0008E0190E0019669E170E00E948D16809375
:100400008E01089580918E018350833068F49FEFB0
:1004100095B9E0918E01F0E0E159FE4F80818F7334
:1004200088B99BB987E08EB980918E01863069F4D6
:100430008FEF85B99FE398B98BB9E0918E01F0E019
:10044000E75AFE4F808187708EB980918E01875068
:10045000823068F48FEF85B99FE398B98BB9E0914A
:100460008E01F0E0E75AFE4F808187708EB980914F
:100470008E018950823068F48FEF85B98FE388B997
:10048000E0918E01F0E0E25AFE4F80818BB987E067
:100490008EB980918E0190E0019669E170E00E9432
:1004A0008D1680938E01089580918E01833068F4BB
:1004B0009FEF95B9E0918E01F0E0E159FE4F808108
:1004C0008F7388B99BB987E08EB980918E01835074
:1004D000833068F49FEF95B9E0918E01F0E0E15927
:1004E000FE4F80818F7388B99BB987E08EB9809168
:1004F0008E01863069F48FEF85B99FE398B98BB987
:10050000E0918E01F0E0E75AFE4F808187708EB94E
:1005100080918E018B50833068F48FEF85B98FE323
:1005200088B9E0918E01F0E0E25AFE4F80818BB9EC
:1005300087E08EB980918E018E50833068F48FEF02
:1005400085B98FE388B9E0918E01F0E0E25AFE4F61
:1005500080818BB987E08EB980918E01813141F421
:100560008EEF85B98FE388B98FEF8BB987E08EB9AD
:10057000E0918E018AEE8E0F833058F4F0E0EA5954
:10058000FE4F808185B98FE388B98FEF8BB987E003
:100590008EB980918E0190E0019669E170E00E9431
:1005A0008D1680938E01089580918E01833068F4BA
:1005B0009FEF95B9E0918E01F0E0E159FE4F808107
:1005C0008F7388B99BB987E08EB980918E01835073
:1005D000833068F49FEF95B9E0918E01F0E0E15926
:1005E000FE4F80818F7388B99BB987E08EB9809167
:1005F0008E01863069F48FEF85B99FE398B98BB986
:10060000E0918E01F0E0E75AFE4F808187708EB94D
:1006100080918E018750823068F48FEF85B99FE317
:1006200098B98BB9E0918E01F0E0E75AFE4F8081D6
:1006300087708EB980918E018950823068F48FEF77
:1006400085B98FE388B9E0918E01F0E0E25AFE4F60
:1006500080818BB987E08EB980918E018B50833079
:1006600068F48FEF85B98FE388B9E0918E01F0E0EF
:10067000E25AFE4F80818BB987E08EB9E0918E01FE
:100680008AEE8E0F833058F4F0E0EA59FE4F8081F5
:1006900085B98FE388B98FEF8BB987E08EB98091E8
:1006A0008E0190E0019669E170E00E948D168093C2
:1006B0008E01089580918E018350833068F49FEFFE
:1006C00095B9E0918E01F0E0E159FE4F80818F7382
:1006D00088B99BB987E08EB980918E01863069F424
:1006E0008FEF85B99FE398B98BB9E0918E01F0E067
:1006F000E75AFE4F808187708EB980918E018750B6
:10070000823068F48FEF85B99FE398B98BB9E09197
:100710008E01F0E0E75AFE4F808187708EB980919C
:100720008E018950823068F48FEF85B98FE388B9E4
:10073000E0918E01F0E0E25AFE4F80818BB987E0B4
:100740008EB9E0918E018EEE8E0F843058F4F0E079
:10075000EA59FE4F808185B98FE388B98FEF8BB955
:1007600087E08EB9E0918E018AEE8E0F833058F4C7
:10077000F0E0EA59FE4F808185B98FE388B98FEFA9
:100780008BB987E08EB980918E0190E0019669E186
:1007900070E00E948D1680938E01089580918E01E5
:1007A000833068F49FEF95B9E0918E01F0E0E15954
:1007B000FE4F80818F7388B99BB987E08EB9809195
:1007C0008E018750823068F48FEF85B99FE398B926
:1007D0008BB9E0918E01F0E0E75AFE4F808187707F
:1007E0008EB980918E018950823068F48FEF85B97F
:1007F0008FE388B9E0918E01F0E0E25AFE4F8081EC
:100800008BB987E08EB980918E018B50833068F46C
:100810008FEF85B98FE388B9E0918E01F0E0E25A5D
:10082000FE4F80818BB987E08EB9E0918E018EEE0C
:100830008E0F843058F4F0E0EA59FE4F808185B97C
:100840008FE388B98FEF8BB987E08EB9E0918E0185
:100850008AEE8E0F833058F4F0E0EA59FE4F808123
:1008600085B98FE388B98FEF8BB987E08EB9809116
:100870008E0190E0019669E170E00E948D168093F0
:100880008E01089580918E01833068F49FEF95B9B1
:10089000E0918E01F0E0E159FE4F80818F7388B9BD
:1008A0009BB987E08EB980918E018750823068F4C1
:1008B0008FEF85B99FE398B98BB9E0918E01F0E095
:1008C000E75AFE4F808187708EB980918E018950E2
:1008D000823068F48FEF85B98FE388B9E0918E019B
:1008E000F0E0E25AFE4F80818BB987E08EB98091AB
:1008F0008E018B50833068F48FEF85B98FE388B910
:10090000E0918E01F0E0E25AFE4F80818BB987E0E2
:100910008EB980918E018E50833068F48FEF85B947
:100920008FE388B9E0918E01F0E0E25AFE4F8081BA
:100930008BB987E08EB980918E01813141F48EEFC1
:1009400085B98FE388B98FEF8BB987E08EB9E091D5
:100950008E018EEE8E0F843058F4F0E0EA59FE4F8F
:10096000808185B98FE388B98FEF8BB987E08EB925
:10097000E0918E018AEE8E0F833058F4F0E0EA5950
:10098000FE4F808185B98FE388B98FEF8BB987E0FF
:100990008EB980918E0190E0019669E170E00E942D
:1009A0008D1680938E01089580918E01833068F4B6
:1009B0009FEF95B9E0918E01F0E0E159FE4F808103
:1009C0008F7388B99BB987E08EB980918E0183506F
:1009D000833068F49FEF95B9E0918E01F0E0E15922
:1009E000FE4F80818F7388B99BB987E08EB9809163
:1009F0008E01863069F48FEF85B99FE398B98BB982
:100A0000E0918E01F0E0E75AFE4F808187708EB949
:100A100080918E018750823068F48FEF85B99FE313
:100A200098B98BB9E0918E01F0E0E75AFE4F8081D2
:100A300087708EB980918E018950823068F48FEF73
:100A400085B98FE388B9E0918E01F0E0E25AFE4F5C
:100A500080818BB987E08EB980918E0190E00196FC
:100A600069E170E00E948D1680938E010895809157
:100A70008E01833068F49FEF95B9E0918E01F0E02C
:100A8000E159FE4F80818F7388B99BB987E08EB999
:100A900080918E018350833068F49FEF95B9E09187
:100AA0008E01F0E0E159FE4F80818F7388B99BB9C8
:100AB00087E08EB980918E01863069F48FEF85B919
:100AC0009FE398B98BB9E0918E01F0E0E75AFE4FB1
:100AD000808187708EB980918E018750823068F452
:100AE0008FEF85B99FE398B98BB9E0918E01F0E063
:100AF000E75AFE4F808187708EB980918E018950B0
:100B0000823068F48FEF85B98FE388B9E0918E0168
:100B1000F0E0E25AFE4F80818BB987E08EB9809178
:100B20008E018B50833068F48FEF85B98FE388B9DD
:100B3000E0918E01F0E0E25AFE4F80818BB987E0B0
:100B40008EB980918E018E50833068F48FEF85B915
:100B50008FE388B9E0918E01F0E0E25AFE4F808188
:100B60008BB987E08EB980918E01813141F48EEF8F
:100B700085B98FE388B98FEF8BB987E08EB9E091A3
:100B80008E018EEE8E0F843058F4F0E0EA59FE4F5D
:100B9000808185B98FE388B98FEF8BB987E08EB9F3
:100BA000E0918E018AEE8E0F833058F4F0E0EA591E
:100BB000FE4F808185B98FE388B98FEF8BB987E0CD
:100BC0008EB980918E0190E0019669E170E00E94FB
:100BD0008D1680938E01089580918E01833068F484
:100BE0009FEF95B9E0918E01F0E0E159FE4F8081D1
:100BF0008F7388B99BB987E08EB980918E0183503D
:100C0000833068F49FEF95B9E0918E01F0E0E159EF
:100C1000FE4F80818F7388B99BB987E08EB9809130
:100C20008E01863069F48FEF85B99FE398B98BB94F
:100C3000E0918E01F0E0E75AFE4F808187708EB917
:100C400080918E018750823068F48FEF85B99FE3E1
:100C500098B98BB9E0918E01F0E0E75AFE4F8081A0
:100C600087708EB980918E018950823068F48FEF41
:100C700085B98FE388B9E0918E01F0E0E25AFE4F2A
:100C800080818BB987E08EB980918E018B50833043
:100C900068F48FEF85B98FE388B9E0918E01F0E0B9
:100CA000E25AFE4F80818BB987E08EB9E0918E01C8
:100CB0008EEE8E0F843058F4F0E0EA59FE4F8081BA
:100CC00085B98FE388B98FEF8BB987E08EB9E09152
:100CD0008E018AEE8E0F833058F4F0E0EA59FE4F11
:100CE000808185B98FE388B98FEF8BB987E08EB9A2
:100CF00080918E0190E0019669E170E00E948D166E
:100D000080938E01089580918E01843038F48FEFA6
:100D100085B99FE398B98BB987E08EB980918E0130
:100D20008450823068F49FEF95B9E0918E01F0E035
:100D3000E159FE4F80818F7388B99BB987E08EB9E6
:100D400080918E01863069F48FEF85B99FE398B961
:100D50008BB9E0918E01F0E0E75AFE4F80818770F9
:100D60008EB980918E018750823068F48FEF85B9FB
:100D70009FE398B98BB9E0918E01F0E0E75AFE4FFE
:100D8000808187708EB980918E01893069F48FEFF0
:100D900085B98FE388B9E0918E01F0E0E25AFE4F09
:100DA00080818BB987E08EB980918E018A50853021
:100DB00038F48FEF85B99FE398B98BB987E08EB986
:100DC00080918E018F50823068F48FEF85B98FE368
:100DD00088B9E0918E01F0E0E25AFE4F80818BB934
:100DE00087E08EB980918E01813141F48EEF85B913
:100DF0008FE388B98FEF8BB987E08EB9E0918E01D0
:100E00008EEE8E0F833058F4F0E0EA59FE4F808169
:100E100085B98FE388B98FEF8BB987E08EB9809160
:100E20008E01853139F48FEF85B99FE398B98BB97D
:100E300087E08EB9E0918E018AEE8E0F833058F4F0
:100E4000F0E0EA59FE4F808185B98FE388B98FEFD2
:100E50008BB987E08EB980918E0190E0019669E1AF
:100E600070E00E948D1680938E0108958FEF85B9F2
:100E70009FE398B98BB987E08EB9089549E2849FC2
:100E8000412D1124E42FE295EF7024E6E29F8019B2
:100E900011244DEC849F412D1124942F9695969505
:100EA0009695392F330F232F220F220F230F821BEA
:100EB000EE2309F4CBC04E2F50E0FA013197E93010
:100EC000F10540F5E65AFF4F0C94A11624E020935B
:100ED0008B01BFC025E020938B01BBC026E020938F
:100EE0008B01B7C027E020938B01B3C028E020938B
:100EF0008B01AFC029E020938B01ABC02AE0209387
:100F00008B01A7C02BE020938B01A3C02CE0209382
:100F10008B019FC03FEF4EE924E23150404020401A
:100F2000E1F700C000002DE020938B013FEF44E388
:100F30002CE0315040402040E1F700C000009923F0
:100F400051F0492F50E04A30510560F5FA01ED5952
:100F5000FF4F0C94A11693E090938B0123C094E073
:100F600090938B011FC095E090938B011BC096E07E
:100F700090938B0117C097E090938B0113C098E07A
:100F800090938B010FC099E090938B010BC09AE076
:100F900090938B0107C09BE090938B0103C09CE072
:100FA00090938B013FEF4EE994E2315040409040E6
:100FB000E1F700C000009DE090938B012FEF34E338
:100FC0004CE0215030404040E1F700C0000090E08C
:100FD0008A30910560F5FC01E359FF4F0C94A1168E
:100FE00083E080938B0123C084E080938B011FC03A
:100FF00085E080938B011BC086E080938B0117C036
:1010000087E080938B0113C088E080938B010FC031
:1010100089E080938B010BC08AE080938B0107C02D
:101020008BE080938B0103C08CE080938B018FEF6A
:101030009EE924E2815090402040E1F700C000008A
:1010400010928E018EE080938B010895911179CFDB
:10105000BECF3FEF4EE924E2315040402040E1F75F
:1010600000C000002DE020938B013FEF44E32CE013
:10107000315040402040E1F700C00000911161CFA5
:101080006ACF80918E01863068F49FEF95B9E09128
:101090008E01F0E0E159FE4F80818F7388B99BB9D2
:1010A00087E08EB980918E018650833068F48FEF8F
:1010B00085B99FE398B98BB9E0918E01F0E0E75ACA
:1010C000FE4F808187708EB980918E018950883063
:1010D00068F48FEF85B98FE388B9E0918E01F0E075
:1010E000E25AFE4F80818BB987E08EB9E0918E0184
:1010F0008FEE8E0F883058F4F0E0EA59FE4F808171
:1011000085B98FE388B98FEF8BB987E08EB980916D
:101110008E01815080938E01873148F086E1809363
:101120008E01809186018F5F8093860108958111E1
:101130000BC080918601882339F081E080938B0178
:10114000109287018093880108950E94F2008EE03A
:1011500080938B0108950E94F20010928C010E94EE
:10116000A50808958FE080938B012FE78FE492E12B
:10117000215080409040E1F700C000008DE0809356
:101180008B012FE78FE492E1215080409040E1F7FE
:1011900000C0000008950E94A5000E94D5000E9492
:1011A000CF008FEF8093B40078940E94A508D1E01F
:1011B000C2E00E94190A809192018130D1F7109209
:1011C000920180E090E00E94610A882394F7809168
:1011D00088018111EECF80918E01823061F480917F
:1011E0008C018F5F80938C01D0938801C09387011D
:1011F000C0938B01DECF0E94B208D093880180910A
:101200008E018093870180918C010E943E070E948D
:10121000AB08CFCF1F920F920FB60F9211242F93CE
:101220003F934F935F936F937F938F939F93AF936E
:10123000BF93EF93FF93E0918B018E2F90E0FC0121
:101240003197EF30F10508F061C0E958FF4F0C9479
:10125000A11680918D018A3521F40E94FE00109222
:101260008D0180918D018F5F80938D014FC08091A2
:10127000890190918A01019690938A018093890156
:10128000883E934009F042C081E080938B01109228
:101290008A01109289013AC00E945E0137C00E9403
:1012A000020234C00E94540231C00E94D4022EC0F7
:1012B0000E945A032BC00E94CE0328C00E94420401
:1012C00025C00E94D40422C00E9437051FC00E947E
:1012D000EC051CC00E94360719C080918D018E312B
:1012E00021F40E94410810928D0180918D018F5F41
:1012F00080938D010BC08091890190918A010196A4
:1013000090938A01809389010E948306FF91EF9157
:10131000BF91AF919F918F917F916F915F914F910D
:101320003F912F910F900FBE0F901F90189581E065
:10133000809393010895E0911C01F0911D0180813B
:10134000882344F4E091BF01F091C0018081846062
:101350008083089581E0809392010895882324F486
:1013600081E080939101089586FD03C01092910160
:1013700008958F708E5F8093910108958DEB91E0B9
:101380000E94EA1460E070E08AE491E00E94ED15AA
:1013900060E070E08AE491E00E940C1648EB51E0B6
:1013A00060E08CE191E00E94430B089588E087BDE6
:1013B000E5E6F0E080818F7E80837398E1ECF1E0D8
:1013C000108288E191E09283818382E191E09483AD
:1013D00083838AE091E0968385838EE091E0908715
:1013E000878380E091E09287818786E091E094870F
:1013F00083878CEF92E1968785878EEB99E0908BBF
:1014000087878EEA99E0928B818B87E999E0948BAC
:10141000838B168A158A8BE999E0908F878BCF0191
:101420000E94C3100E94BE109093C0018093BF0120
:10143000089580919401813039F480E00E94221156
:10144000811102C010929401809193018130C9F4FE
:101450000E947211811103C00E947A1103C080E8BA
:101460000E94AE0910929301E091BF01F091C0017A
:10147000808182FF06C081E08093940180818B7F10
:101480008083089581E08093940184E190E00E943C
:10149000380B089580918F0190919001449739F411
:1014A0001092900110928F010E94420A089580913B
:1014B0008F019091900101969093900180938F01FC
:1014C00008959C01220F331F820F931F880F991FCD
:1014D000E0912001F0912101E80FF91F808108952A
:1014E0001F920F920FB60F9211242F933F934F9399
:1014F0005F936F937F938F939F93AF93BF93EF937C
:10150000FF930E944C16FF91EF91BF91AF919F9175
:101510008F917F916F915F914F913F912F910F909C
:101520000FBE0F901F9018958DE3809365008FEF8D
:101530008093640094B114B895B185B997B190784F
:1015400097B998B19F6798B99AB11AB89BB18BB9FE
:101550008DB1807F8DB98EB18F608EB940E060E82B
:1015600081E690E00E94BB0A86E083BF15BE7894B6
:101570000E94C20A08952FB7F894FC01608340834B
:101580002FBF0895E4E6F0E080818F7D808382E0C4
:1015900084BD95E095BD80936E0080E00895CF9264
:1015A000DF92FF920F931F93CF93DF93EC01AE81F5
:1015B000BF81EB01CC0FDD1FC60FD71FCA0FDB1F8A
:1015C000FA80FC0144815581E6E0E69F9001E79FA7
:1015D000300D11248A01020F131FF801228133817B
:1015E000F90121813281F80104811581201B310B21
:1015F000E8812E1B3109EC01EA81FB810081118118
:10160000FA0140E050E04017510739F146175707FB
:10161000F9F012968C911297F8121AC080818558B1
:101620008230E8F0C480D58082819381EC01898189
:101630009A81C816D90660F48C199D09CC91D0E026
:10164000C817D90728F48C1B9D0B2817390738F0C9
:101650004F5F5F4F13963696D6CF80E001C081E092
:10166000DF91CF911F910F91FF90DF90CF90089560
:101670002091950130919601820F931F90939601CE
:101680008093950108950097D9F041155105C1F057
:1016900026E0629FB0011124DC011496ED91FC91CB
:1016A0001597E60FF71F21E0208314968D919C91EA
:1016B0001597FC01E60FF71F5383428380E00895DE
:1016C0008BE008952F923F924F925F926F927F929C
:1016D0008F929F92AF92BF92CF92DF92EF92FF9242
:1016E0000F931F93CF93DF93009709F47DC3EC0111
:1016F000A12CB12C812C912C212CD12C33E0C32E88
:1017000045E8642E56E8752E67E0362E72E0472EC7
:10171000E8E05E2EEA81FB8180819181881699063E
:1017200008F0A5C17501EE0CFF1C0C811D810E0D8A
:101730001F1DD8018C91843009F4A2C038F4823086
:1017400001F108F049C0813059F08AC1853809F4A7
:10175000C4C0863809F4F8C0873009F081C139C1A6
:10176000D8011296ED91FC91139780818E7109F04A
:1017700069C14C928C819D81FC01EE0DFF1D51824F
:1017800061C1F8012181222329F10280F381E02D3A
:10179000253020F081819281D8010EC0D8011496A5
:1017A0008D919C911597418152818417950769F01D
:1017B0004817590730F4019715969C938E93149708
:1017C00004C00196F801958384832150D8011196B5
:1017D0002C9338C1F80130C1D80114962D913C9159
:1017E000159712968D919C911397DC0111964D914E
:1017F0005C9112972417350709F432C18E819F81BD
:1018000042175307E0F4241B350BDC01AA0DBB1D66
:101810008C9190E0058002C0959587950A94E2F737
:1018200099272817390708F41BC18481882309F4F4
:1018300017C1F8013082EA81FB8124811AC0FC01C2
:10184000EA0DFB1D421B530B808190E0481759079E
:1018500008F406C18281882331F0B401CE010E94D0
:10186000CF0A8111FDC0E4E0D801EC93EA81FB814D
:1018700022818C819D81FC01EE0DFF1D2183E2C040
:10188000D80114962D913C9115971296ED91FC91EB
:101890001397818192818217930710F4CC92D7C05D
:1018A000EE81FF81EA0DFB1D821B930B208130E04E
:1018B0002817390708F0C9C08281882331F0B401A4
:1018C000CE010E94CF0A8111CBC0F801818188230B
:1018D00009F468C081508183B5C0A881B981808531
:1018E00013968C93EC81FD81EE0DFF1D4481558193
:1018F000A281B38111968D919C91129784179507BF
:10190000C0F0AE81BF81AA0DBB1D6C91262F30E0C7
:1019100011967C917F5F02C0359527957A95E2F705
:10192000841B950B621B262F30E02817390708F41B
:1019300095C07082EA81FB8122818C819D81FC01AE
:10194000EE0DFF1D218342C0D80114966D917C914C
:1019500015971296ED91FC911397218132812617EC
:10196000370758F411968C911197811102C0CC92CF
:1019700075C08150F801818371C0EE81FF81EA0D4D
:10198000FB1D8081482F50E091819F5F02C05595DB
:1019900047959A95E2F7261B370B841B90E0821738
:1019A000930760F4D8016C92EA81FB8123818C81DA
:1019B0009D81FC01EE0DFF1D218350C0F801818146
:1019C000811102C0C0824AC08150818322242394A5
:1019D00039C0D80114962D913C91159712968D918E
:1019E0009C911397DC0111968D919C91129782170F
:1019F000930758F5281B390BAE81BF81AA0DBB1D7B
:101A00008C9190E0058002C0959587950A94E2F745
:101A1000992728173907C8F0D80111968C9111978A
:101A200081110CC0E1E0EC938C819D81FC01EE0DF5
:101A3000FF1D0280F381E02DC08212C08150D801C9
:101A400011968C93DD24D3940BC0F801C0828C8155
:101A50009D81FC01EE0DFF1D118202C02224239402
:101A6000FFEF8F1A9F0A83E0A80EB11C53CEE881C6
:101A7000F981808187FF23C040E050E020E030E022
:101A8000EA81FB81808191812817390798F4EC81E4
:101A9000FD81E40FF51FA281B3818C9180FD05C00B
:101AA0009081977F11F081608C932F5F3F4F4A5F49
:101AB0005F4FE6CFE881F98180818F778083D110F5
:101AC00007C0E881F98121106FC080818E7F6EC0D0
:101AD000EA81FB8181858823A1F3E881F9818081F6
:101AE00080688083EA81FB818185813051F740E005
:101AF00050E020E030E096E0D92EEA81FB81608161
:101B0000718126173707E8F60C811D81FA01EE0F67
:101B1000FF1FE00FF11F8081982F977FA1F185387B
:101B200011F08330B1F5EE80FF80D701A40FB51F0F
:101B30001296BC90BB2039F180E090E0C12C861752
:101B40009707F8F428173907D1F0D89ED001D99E0D
:101B5000B00D1124A00FB11FAC91A43011F0A63824
:101B600071F4DC01AA0FBB1FA80FB91FAE0DBF1D7A
:101B70001296AC91BA1203C0CB01CC24C394019647
:101B8000DECFC11006C00280F381E02D80818E7F00
:101B900005C00280F381E02D8081816080832F5F0A
:101BA0003F4F4D5F5F4FA9CF8081816080838091DF
:101BB000950190919601E881F98121813281A901F5
:101BC00048535F4F4817590738F4821B930BAA24D8
:101BD000A394A3E0BA2E44C08217930710F080E0CC
:101BE00004C1821B930B0197893C9105C0F3EFCF91
:101BF000885C9109E881F9812181328128533F4F26
:101C0000328321832381211196C02481222311F064
:101C100021502483E881F9812581222311F021506C
:101C200025838A809B80D40116962C9116972111CA
:101C30001BC08A809B80F4012781211148C0EA8162
:101C4000FB812381222361F020E030E0A0E0B0E0BE
:101C5000EA81FB8140815181A417B50708F46EC069
:101C6000893C910528F6BBCF08811981F8012481B0
:101C70002111DFCFED90FC9060E070E040E050E09B
:101C80004E155F05F1F0EC81FD81E60FF71F208115
:101C9000233011F0283081F424813581C280D38033
:101CA000D6011196CD90DC9012972C153D0520F4AD
:101CB0002F5F3F4F358324834F5F5F4F6A5F7F4FB6
:101CC000DFCFF4012681D80114962C93B2CF08817E
:101CD0001981D80115962C912111B1CFE080F180A6
:101CE00060E070E040E050E04E155F05F1F0EC81FF
:101CF000FD81E60FF71F2081233011F0283081F499
:101D000024813581C280D380D6011196CD90DC909C
:101D10001297C216D30620F421503109358324834B
:101D20004F5F5F4F6A5F7F4FDFCFF4012781D8019C
:101D300015962C9384CF2150238381CFA901440F82
:101D4000551FEC81FD81E40FF51F6081653809F0B6
:101D500047C06181662319F06150618341C0A08250
:101D60006C817D81FB01E40FF51F0280F381E02D82
:101D7000B082EE81FF81E20FF31FD280DD2081F17E
:101D800040E050E000E010E0EA81FB816081718179
:101D90000617170728F5EE81FF81E40FF51F628112
:101DA000D61219C0BA01660F771FEC81FD814F0171
:101DB000860E971EF401E280F380F701F080F0FEBA
:101DC0000AC0F401A082EC81FD81E60FF71F0280BA
:101DD000F381E02DB0820F5F1F4F4D5F5F4FD4CF77
:101DE00011962D5F3F4F34CF8BE0DF91CF911F9144
:101DF0000F91FF90EF90DF90CF90BF90AF909F90AA
:101E00008F907F906F905F904F903F902F900895AC
:101E10002F923F924F925F926F927F928F929F92FA
:101E2000AF92BF92CF92DF92EF92FF920F931F93E8
:101E3000CF93DF93CDB7DEB72C970FB6F894DEBF04
:101E40000FBECDBF2C01009709F463C1DC011296CF
:101E50002D903C901397F1017280ED91FC9161807F
:101E6000D10117968C911797E72CF12CFC82EB820D
:101E7000262D30E0882309F4A9C08D909C9057014D
:101E8000AA0CBB1C6901CC0CDD1CE12CF12C40E040
:101E900050E000E010E00815190549F184819581B2
:101EA0008E0D9F1DDC0111966D917C9112978281A0
:101EB00093818C0D9D1DDC018D919C918617970758
:101EC00028F4DB01A81BB90BCD0105C06817790701
:101ED00030F4861B970B4817590708F4AC010F5FC5
:101EE0001F4FB5E0EB0EF11CCA0CDB1CD4CFD101A7
:101EF00018968C91682F70E06417750708F057C02A
:101F00000680F781E02DE20FF31F80818F5F8083D1
:101F1000F20140815181A281B381FA018181468120
:101F20005781FA01E80FF11D908119968C9119974C
:101F300098134CC015960D911C911697D801A20FBD
:101F4000B31F8C91882311F0815001C08FE0F801FC
:101F500061E070E040E050E0EB80FC804E155F05F2
:101F600060F44217530729F09081981302C060E093
:101F700070E04F5F5F4F3196EFCF672B19F38C9373
:101F800080E090E0D2011296ED91FC91139742818E
:101F900050E084179507D0F4D201ED91FC910680B2
:101FA000F781E02DE80FF91F10820196EBCF86959F
:101FB00090E04817590750F40680F781E02DE20FB2
:101FC000F31F8081882311F081508083F201028009
:101FD000F381E02DFA83E983EB80FC80EE0CFF1C9B
:101FE000FC82EB82B901660F771F7E836D83D72C4D
:101FF000D694D39440E050E020E030E0E12CF12C86
:102000008D2D90E098878F83A981BA818D919C91C5
:10201000E816F90608F068C0D201ED91FC91A481A0
:10202000B581BD01620F731F7C876B87DB018C91CB
:102030008C7109F04FC011966D917C91129782813D
:102040009381840F951FED81FE81E80FF91F718345
:102050006083A12CB12CC12CC714C0F5FC01EC0D80
:10206000F11DEC0DF11D9A87898799249394812C99
:10207000312C7314C9F0C31479F0A985BA850D9178
:102080001C91608171810617170711F4939404C0A5
:102090000617170708F48394339469857A856E5F71
:1020A0007F4F7A876987E5CF9D1458F48D1460F4CB
:1020B000692D70E0680D711DAF81B8856A177B07C7
:1020C0001CF0A080B180C72CC394C6CFEB85FC85E3
:1020D000B282A182FFEFEF1AFF0A2B5F3F4F6B81A5
:1020E0007C81460F571F90CF6394671408F0612CD2
:1020F000E981FA81A381B48185819681FC01E60D95
:10210000F11D80818C93D201ED91FC91618280E080
:1021100001C08BE02C960FB6F894DEBF0FBECDBF8A
:10212000DF91CF911F910F91FF90EF90DF90CF90B3
:10213000BF90AF909F908F907F906F905F904F90E7
:102140003F902F90089595E090939901E091E001E0
:10215000F091E1010188F289E02D309709F00994AE
:10216000FFCFE091E001F091E1010388F489E02DD7
:10217000309709F0099480E40C94A3108091E00159
:102180009091E1010895CF939093E1018093E00154
:1021900080919901853039F0823028F08091970143
:1021A000882371F140C010929701C0E0A091E00136
:1021B000B091E1018C2F90E0880F991F1196ED915D
:1021C000FC911297E80FF91F0190F081E02D3097F4
:1021D00029F317962D913C911897D901A80FB91F93
:1021E0008D919C910995882329F0809197018F5FAB
:1021F00080939701CF5F809197018823B9F2CECF6A
:1022000082E080939901E091E001F091E10107847F
:10221000F089E02D309711F0099508C085E0809392
:10222000990181E001C08F5F8093970180919701B0
:10223000882331F01092970180E8CF910C94A3107D
:10224000CF9108951F93CF93DF93182FA091E001B2
:10225000B091E10115962D913C911697D0E0F901CE
:10226000ED0FF11DED0FF11D80819181892B11F092
:10227000DF5FF5CF53968D919C915497892B49F14F
:10228000812F90E0880F991FF901E80FF91F019045
:10229000F081E02D3097E9F01B962D913C911C9731
:1022A000D901A80FB91F8D919C91009791F061EB16
:1022B00070E10995C82F811106C083E080939901D0
:1022C0001092980103C082E0809399011D1728F0B5
:1022D00001C0C2E082E80E94A3108C2FDF91CF9151
:1022E0001F910895E091E001F091E1010584F685E8
:1022F000E02D09941F93CF93DF931F92CDB7DEB7E4
:102300001982E091E001F091E1010588F689E02D64
:10231000309749F082E080939901CE0101960995AA
:1023200083E0809399018091970181112CC01981DC
:10233000111129C084E080939901A091E001B0912E
:10234000E1018091980190E0880F991F1396ED911B
:10235000FC911497E80FF91F0190F081E02D199678
:102360002D913C911A97309781F0D901A80FB91F90
:102370008D919C91099581113EC0809198018F5F4C
:1023800080939801DACF10E03DC010929801F901D6
:10239000E10FF11DE10FF11D0190F081E02D30976B
:1023A00059F00190F081E02D808187FF03C09C915E
:1023B00094609C931F5FEBCF1093980182E0809311
:1023C00099015796ED91FC915897309711F0099526
:1023D00005C0809197018F5F8093970110E08091F5
:1023E0009701882379F01092970180919801806479
:1023F0000E94A31007C0809197018F5F809397017F
:1024000013E0EDCF812F0F90DF91CF911F910895B1
:102410008091A1019091A201A091E201B091E3010C
:10242000ED91FC9111974081518125E0289FB001E9
:10243000299F700D112420E030E084179507A8F43F
:102440001496ED91FC911597E20FF31FE60FF71F1D
:10245000E0812B5F3F4FE0FD02C00196EECF9093ED
:10246000A2018093A10180E008951092A201109230
:10247000A10181E008954AE0489F9001499F300DF5
:102480001124E091E201F091E3010280F381E02D5B
:10249000E20FF31F42814093F800E091E201F091D6
:1024A000E3010280F381E02DE20FF31F43814093AB
:1024B000F900E091E201F091E3010280F381E02D67
:1024C000E20FF31F44814093FA00E091E201F091A2
:1024D000E3010280F381E02DE20FF31F408140937E
:1024E000F200E091E201F091E3010280F381E02D3E
:1024F000E20FF31F41814093F30065E0689FA00164
:10250000699F500D1124E091E201F091E3010480F4
:10251000F581E02DE40FF51F83818093E500E091C4
:10252000E201F091E3010480F581E02DE40FF51F55
:102530008381948188279F739093E600A091E201A4
:10254000B091E3011496ED91FC911597E40FF51FFE
:10255000808181FD608314968D919C911597FC017B
:10256000E40FF51F80818C7171F41296ED91FC914E
:102570001397E20FF31FE085E295EF70F0E0E1586A
:10258000FE4F808101C08FE38093E700E091E2017C
:10259000F091E3010280F381E02DE20FF31F8681C9
:1025A0008B3F10F48C5F01C08FEF8093E800E091C7
:1025B000E201F091E3010280F381E02DE20FF31FCD
:1025C0008781807F9185892B8093E400E091E201EF
:1025D000F091E30182819381FC01E20FF31F878177
:1025E0008F708093E10082E18093E0008091E900A8
:1025F00081608093E90008954F925F926F927F927D
:102600008F929F92AF92BF92CF92DF92EF92FF9202
:102610000F931F93CF93DF938091A001882309F438
:1026200031C1A091E201B091E301E090E401F090AA
:10263000E501412C512C60E070E000E010E080E00A
:102640006624639491E8792EAA24AA94BB24B394B7
:10265000CD90DC901197F60120813181021713078C
:1026600008F00CC1E701299139917E011496ED9192
:10267000FC911597E60FF71F40814C7150E056957D
:102680004795569547954115510521F04130510523
:10269000C1F0EBC012964D915C911397440D551DFE
:1026A000EA0198859F704985941710F4491B01C071
:1026B00040E002C0369527954A95E2F732832183A0
:1026C000D5C012964D915C911397440D551DEA01AA
:1026D000098402C0369527950A94E2F73283218354
:1026E000438154812115D2E03D0720F02F5F314016
:1026F00091E005C0E501C21BD30B9E0190E0E6010D
:10270000DA80D0E4DD1205C036952795992319F0BB
:1027100009C0992339F04F3F9FE3590731F4708284
:102720008EE007C08824839401C0812C2A303105B3
:1027300098F41496ED91FC911597E60FF71F208100
:1027400027FF60821496ED91FC911597E60FF71F15
:102750005F73548343838AC06A01CC24C0E3DC22C4
:102760009D2C9294DFE09D226A01CC24DFE0DD22E3
:102770009D2D6A01C0EFCC22DD2454E0D694C7948D
:102780005A95E1F75C2D4F70811032C0203D310524
:1027900060F0D3E09D1649F093942F5C3109F6CF99
:1027A0009F3041F09F5F2551310926313105C0F737
:1027B0009F3069F493E0991202C09FE008C093949F
:1027C00095E005C05F3049F05F5F2250310923304A
:1027D0003105C0F75F3009F05BC09F3009F454C089
:1027E0009F5F55E055C0992061F09A942F5C3109A4
:1027F000203D3105C0F705C0992341F09150255186
:10280000310926313105C0F791110CC0911002C079
:1028100090E008C09A949AE005C0552341F05150C9
:102820002250310923303105C0F751110DC09923D1
:10283000B9F191505AE023303105D0F605C023306C
:10284000310558F14FE05FE0292D30E0322F22278B
:102850003295307F392B242BC0E15C9F600111241D
:10286000C22AD32AD482C38201C0FFCF0F5F1F4F79
:102870006B5F7F4FDAE04D0E511CEACE92E09093F1
:10288000A00110C083E00EC053E09516C1F25FE0D6
:102890002330310508F07ACFD7CF5FE04FE0D4CFB7
:1028A00050E0D2CFDF91CF911F910F91FF90EF9029
:1028B000DF90CF90BF90AF909F908F907F906F9060
:1028C0005F904F9008958F929F92AF92BF92CF9258
:1028D000DF92EF92FF92CF93DF93009709F46CC0E1
:1028E000DC01ED91FC91C080D180E12CF12CA0E0C5
:1028F000B0E040E050E0BA0120E030E0AC15BD05AA
:10290000B1F0EC01EA81FB81EE0DFF1DA080B180EA
:102910002A293B2982809380A480B580482959299F
:102920006A297B291196DAE0ED0EF11CE7CF4115FB
:1029300051056105710509F441C0E091A0016A01EA
:102940007B01CC24EE24FF24DB01CA0188279927D0
:10295000BB27E11115C02093F0003093F1004093A4
:10296000F400CD2CDE2CEF2CFF24C092F500CD011D
:10297000AA27BB278093F60081E08093A0011AC0AC
:10298000E091F0002E2B2093F0002091F100232BFA
:102990002093F1002091F400422B4093F400209109
:1029A000F5002D292093F5002091F600822F8A2B27
:1029B0008093F60080E003C08BE001C082E0DF91ED
:1029C000CF91FF90EF90DF90CF90BF90AF909F900E
:1029D0008F900895009731F09093E5018093E40182
:1029E00080E008958BE00895CF93DF9300D000D06E
:1029F000CDB7DEB71092A4011092A5011092A601E6
:102A00001092A7016115710509F4DBC0009709F464
:102A1000D8C02091A001222309F4D5C0243009F0A8
:102A200093C01092A3018091E90080FF8BC0209198
:102A3000E80030E0A6E0B0E00E94A7166093A40191
:102A40007093A5018093A6019093A7012091E300C4
:102A50002F70DC01CB01820F911DA11DB11D809350
:102A6000A4019093A501A093A601B093A701209182
:102A7000E400277004C0880F991FAA1FBB1F2A9566
:102A8000D2F70E96A11DB11D8093A4019093A501CC
:102A9000A093A601B093A7012091E100237004C088
:102AA000880F991FAA1FBB1F2A95D2F722E0B6955F
:102AB000A795979587952A95D1F78093A401909330
:102AC000A501A093A601B093A70119821A821B82C7
:102AD0001C8221E049815A816B817C81481759070A
:102AE0006A077B07B0F43091A301332329F089836F
:102AF0009A83AB83BC8320E049815A816B817C81BE
:102B00004F5F5F4F6F4F7F4F49835A836B837C8347
:102B1000E1CF2223B9F08091E90080FF13C0109229
:102B2000E000000082E18093E000000081E08093FB
:102B3000E90080919C0190919D01019690939D01E7
:102B400080939C0181E042C09093E3018093E20175
:102B500070939B0160939A01DC01ED91FC9182815D
:102B6000803411F488E003C0803879F58AE08093DE
:102B7000E200E091E201F091E3010190F081E02DAB
:102B80008481803108F080E18093E30081E084BBA0
:102B9000809374001092A2011092A1010E94081269
:102BA00081110BC084E08093A0018091A1019091DC
:102BB000A2010E943B1280E009C082E08093A00144
:102BC00005C08BE003C083E001C082E00F900F904E
:102BD0000F900F90DF91CF9108950097C9F0DC011D
:102BE000ED91FC911197208131812617370790F0E4
:102BF00045E0469F9001479F300D11241496ED91BA
:102C0000FC911597E20FF31F81E0808380E0089527
:102C10008BE0089582E008950097D1F1DC01ED91F9
:102C2000FC911197208131812617370798F1228175
:102C30001496ED91FC911597203459F485E0869F08
:102C4000D001879FB00D1124AE0FBF1F84E392E027
:102C50000CC0203881F485E0869FD001879FB00D9D
:102C60001124AE0FBF1F87E695E014969C938E93B8
:102C7000139780E001C082E095E0969F9001979FB6
:102C8000300D1124E20FF31F90819260908308951C
:102C90008BE0089582E008951092E00081E0809337
:102CA000A3018091EE006091EF002091A10130918D
:102CB000A201A901440F551FE091E401F091E50143
:102CC000E40FF51F90E0962B9183808380919E0105
:102CD00090919F01019690939F0180939E01892B73
:102CE00021F410929D0110929C012F5F3F4F309371
:102CF000A2012093A1010E940812811109C084E061
:102D00008093A0018091A1019091A2010C943B12AB
:102D1000E0919A01F0919B01099497FB072E16F41C
:102D2000009407D077FD09D00E94B61607FC05D0A5
:102D30003EF4909581959F4F0895709561957F4FD2
:102D40000895EE0FFF1F0590F491E02D0994A29FC6
:102D5000B001B39FC001A39F700D811D1124911D6F
:102D6000B29F700D811D1124911D0895AA1BBB1BDC
:102D700051E107C0AA1FBB1FA617B70710F0A61B7B
:102D8000B70B881F991F5A95A9F780959095BC019C
:082D9000CD010895F894FFCF76
:102D980031011C0100004A010000F41400004A013E
:102DA8000000080F620B000063140000AF01270148
:102DB800DA012401140100010004000500140514BF
:102DC8000135013D010000A901B801B50101000369
:102DD8005E014701010F060001025A015001B801C6
:102DE800000080000000000100040100803000069F
:102DF80005030707070707FEFDFBF7EFDFBF7F3E69
:102E08003D3B372F1F3F3FFEFDFBF7EFDFBF7F3F07
:062E18001C0B0503010084
:00000001FF
