:100000000C945A000C9477000C9477000C947700B1
:100010000C9477000C9477000C9477000C94770084
:100020000C9477000C9477000C9477000C94770074
:100030000C9477000C9477000C947E000C943C0197
:100040000C9477000C9477000C9477000C94770054
:100050000C9477000C9477000C9477000C94770044
:100060000C9477000C9477000C9477000C94770034
:100070000C9477000C9477000C9477000C94770024
:100080000C9477000C9477000C9477000C94770014
:100090000C9477000C945F020C9477000C9477001A
:1000A0000C9477000C9477000C9477000C947700F4
:1000B0000C94770011241FBECFEFD8E0DEBFCDBF78
:1000C00011E0A0E0B1E0EAE6FDE102C005900D928A
:1000D000A638B107D9F721E0A6E8B1E001C01D922A
:1000E000A33EB207E1F70E9417010C94B30E0C94E3
:1000F00000000E9483020E94C50108951F920F9282
:100100000FB60F9211242F933F934F935F936F93EA
:100110007F938F939F93AF93BF93EF93FF930E942F
:100120003902A89AFF91EF91BF91AF919F918F9162
:100130007F916F915F914F913F912F910F900FBEE3
:100140000F901F901895EEE6F0E080818460808328
:1001500008958AB18FEF8AB994B184B997B19F633A
:1001600097B99DB197609DB99BB18BB995B185B990
:1001700088B18F6388B98EB187608EB910928B0178
:100180001092890181E080938801089580918B010C
:10019000863068F49FEF95B9E0918B01F0E0E1596A
:1001A000FE4F80818F7388B99BB987E08EB98091AB
:1001B0008B018650833068F48FEF85B99FE398B93F
:1001C0008BB9E0918B01F0E0E75AFE4F8081877098
:1001D0008EB980918B018950883068F48FEF85B992
:1001E0008FE388B9E0918B01F0E0E25AFE4F808105
:1001F0008BB987E08EB9E0918B018FEE8E0F88303E
:1002000058F4F0E0EA59FE4F808185B98FE388B950
:100210008FEF8BB987E08EB980918B0190E00196CA
:1002200069E170E00E947C0E80938B0108950E942A
:1002300079000E94A9000E94A3008FEF8093B40070
:100240007894C2E00E94080280918F018130D1F73A
:1002500010928F0180E090E00E945002882394F772
:10026000C093880180918B018111ECCF809189012D
:100270008F5F80938901E6CF1F920F920FB60F9286
:1002800011242F933F934F935F936F937F938F939B
:100290009F93AF93BF93EF93FF9380918801813039
:1002A00019F0823079F021C080918A01803521F4E3
:1002B0000E94C60010928A0180918A018F5F80930C
:1002C0008A0113C0809186019091870101969093D5
:1002D000870180938601883B9B4039F481E08093BD
:1002E00088011092870110928601FF91EF91BF91D2
:1002F000AF919F918F917F916F915F914F913F91BE
:100300002F910F900FBE0F901F90189581E0809352
:1003100090010895E0911C01F0911D0180818823D6
:1003200044F4E091BC01F091BD0180818460808340
:10033000089581E080938F010895882324F481E05B
:1003400080938E01089586FD03C010928E0108955A
:100350008F708E5F80938E0108958AEB91E00E94EA
:10036000D90C60E070E08AE491E00E94DC0D60E06E
:1003700070E08AE491E00E94FB0D45EB51E060E003
:100380008CE191E00E943203089588E087BDE5E6A4
:10039000F0E080818F7E80837398EEEBF1E0108235
:1003A00088E191E09283818382E191E09483838369
:1003B0008AE091E0968385838EE091E09087878341
:1003C00080E091E09287818786E091E0948783873F
:1003D0008BEE9AE0968785878DEA91E0908B8787F0
:1003E0008DE991E0928B818B86E891E0948B838BF1
:1003F000168A158A8AE891E0908F878BCF010E9438
:10040000B2080E94AD089093BD018093BC0108958D
:1004100080919101813039F480E00E9411098111AD
:1004200002C010929101809190018130C9F40E9424
:100430006109811103C00E94690903C080E80E941C
:100440009D0110929001E091BC01F091BD0180816D
:1004500082FF06C081E08093910180818B7F808341
:10046000089581E08093910184E190E00E94270348
:10047000089580918C0190918D01449739F41092E8
:100480008D0110928C010E943102089580918C019F
:1004900090918D01019690938D0180938C01089528
:1004A0009C01220F331F820F931F880F991FE09129
:1004B0002001F0912101E80FF91F808108951F921A
:1004C0000F920FB60F9211242F933F934F935F9388
:1004D0006F937F938F939F93AF93BF93EF93FF930C
:1004E0000E943B0EFF91EF91BF91AF919F918F9131
:1004F0007F916F915F914F913F912F910F900FBE20
:100500000F901F9018958DE3809365008FEF809377
:10051000640094B114B895B185B997B1907897B942
:1005200098B19F6798B99AB11AB89BB18BB98DB140
:10053000807F8DB98EB18F608EB940E060E881E632
:1005400090E00E94AA0286E083BF15BE78940E94C4
:10055000B10208952FB7F894FC01608340832FBF48
:100560000895E4E6F0E080818F7D808382E084BDA1
:1005700095E095BD80936E0080E00895CF92DF9264
:10058000FF920F931F93CF93DF93EC01AE81BF8156
:10059000EB01CC0FDD1FC60FD71FCA0FDB1FFA8080
:1005A000FC0144815581E6E0E69F9001E79F300D14
:1005B00011248A01020F131FF80122813381F901EE
:1005C00021813281F80104811581201B310BE881E2
:1005D0002E1B3109EC01EA81FB8100811181FA01B6
:1005E00040E050E04017510739F146175707F9F03E
:1005F00012968C911297F8121AC080818558823019
:10060000E8F0C480D58082819381EC0189819A8150
:10061000C816D90660F48C199D09CC91D0E0C81792
:10062000D90728F48C1B9D0B2817390738F04F5F2A
:100630005F4F13963696D6CF80E001C081E0DF9100
:10064000CF911F910F91FF90DF90CF90089520914F
:10065000920130919301820F931F909393018093A5
:10066000920108950097D9F041155105C1F026E097
:10067000629FB0011124DC011496ED91FC91159755
:10068000E60FF71F21E0208314968D919C9115971A
:10069000FC01E60FF71F5383428380E008958BE04F
:1006A00008952F923F924F925F926F927F928F9216
:1006B0009F92AF92BF92CF92DF92EF92FF920F93F1
:1006C0001F93CF93DF93009709F47DC3EC01A12C16
:1006D000B12C812C912C212CD12C33E0C32E45E858
:1006E000642E56E8752E67E0362E72E0472EE8E05D
:1006F0005E2EEA81FB81808191818816990608F03F
:10070000A5C17501EE0CFF1C0C811D810E0D1F1D76
:10071000D8018C91843009F4A2C038F4823001F100
:1007200008F049C0813059F08AC1853809F4C4C045
:10073000863809F4F8C0873009F081C139C1D80181
:100740001296ED91FC91139780818E7109F069C129
:100750004C928C819D81FC01EE0DFF1D518261C187
:10076000F8012181222329F10280F381E02D253037
:1007700020F081819281D8010EC0D80114968D910C
:100780009C911597418152818417950769F048170C
:10079000590730F4019715969C938E93149704C0D3
:1007A0000196F801958384832150D80111962C93EA
:1007B00038C1F80130C1D80114962D913C9115979C
:1007C00012968D919C911397DC0111964D915C913D
:1007D00012972417350709F432C18E819F81421781
:1007E0005307E0F4241B350BDC01AA0DBB1D8C91D3
:1007F00090E0058002C0959587950A94E2F79927C5
:100800002817390708F41BC18481882309F417C10C
:10081000F8013082EA81FB8124811AC0FC01EA0DD3
:10082000FB1D421B530B808190E04817590708F4C9
:1008300006C18281882331F0B401CE010E94BE023C
:100840008111FDC0E4E0D801EC93EA81FB812281B3
:100850008C819D81FC01EE0DFF1D2183E2C0D8013A
:1008600014962D913C9115971296ED91FC9113974A
:10087000818192818217930710F4CC92D7C0EE81C8
:10088000FF81EA0DFB1D821B930B208130E02817AE
:10089000390708F0C9C08281882331F0B401CE0144
:1008A0000E94BE028111CBC0F8018181882309F426
:1008B00068C081508183B5C0A881B98180851396B5
:1008C0008C93EC81FD81EE0DFF1D44815581A28149
:1008D000B38111968D919C91129784179507C0F062
:1008E000AE81BF81AA0DBB1D6C91262F30E0119601
:1008F0007C917F5F02C0359527957A95E2F7841B3E
:10090000950B621B262F30E02817390708F495C095
:100910007082EA81FB8122818C819D81FC01EE0D38
:10092000FF1D218342C0D80114966D917C911597CB
:100930001296ED91FC91139721813281261737078A
:1009400058F411968C911197811102C0CC9275C008
:100950008150F801818371C0EE81FF81EA0DFB1D9A
:100960008081482F50E091819F5F02C05595479547
:100970009A95E2F7261B370B841B90E082179307AA
:1009800060F4D8016C92EA81FB8123818C819D8186
:10099000FC01EE0DFF1D218350C0F8018181811102
:1009A00002C0C0824AC0815081832224239439C06E
:1009B000D80114962D913C91159712968D919C918A
:1009C0001397DC0111968D919C91129782179307D2
:1009D00058F5281B390BAE81BF81AA0DBB1D8C9128
:1009E00090E0058002C0959587950A94E2F79927D3
:1009F00028173907C8F0D80111968C9111978111E9
:100A00000CC0E1E0EC938C819D81FC01EE0DFF1D9B
:100A10000280F381E02DC08212C08150D80111966E
:100A20008C93DD24D3940BC0F801C0828C819D810E
:100A3000FC01EE0DFF1D118202C022242394FFEF62
:100A40008F1A9F0A83E0A80EB11C53CEE881F9816A
:100A5000808187FF23C040E050E020E030E0EA8161
:100A6000FB81808191812817390798F4EC81FD8101
:100A7000E40FF51FA281B3818C9180FD05C09081A8
:100A8000977F11F081608C932F5F3F4F4A5F5F4FDC
:100A9000E6CFE881F98180818F778083D11007C00C
:100AA000E881F98121106FC080818E7F6EC0EA815C
:100AB000FB8181858823A1F3E881F98180818068A9
:100AC0008083EA81FB818185813051F740E050E0ED
:100AD00020E030E096E0D92EEA81FB8160817181CF
:100AE00026173707E8F60C811D81FA01EE0FFF1F6C
:100AF000E00FF11F8081982F977FA1F1853811F0C9
:100B00008330B1F5EE80FF80D701A40FB51F129698
:100B1000BC90BB2039F180E090E0C12C861797078C
:100B2000F8F428173907D1F0D89ED001D99EB00D1E
:100B30001124A00FB11FAC91A43011F0A63871F4AC
:100B4000DC01AA0FBB1FA80FB91FAE0DBF1D129667
:100B5000AC91BA1203C0CB01CC24C3940196DECF72
:100B6000C11006C00280F381E02D80818E7F05C018
:100B70000280F381E02D8081816080832F5F3F4F71
:100B80004D5F5F4FA9CF808181608083809192010A
:100B900090919301E881F98121813281A901485323
:100BA0005F4F4817590738F4821B930BAA24A3946C
:100BB000A3E0BA2E44C08217930710F080E004C16E
:100BC000821B930B0197893C9105C0F3EFCF885CA2
:100BD0009109E881F9812181328128533F4F328385
:100BE00021832381211196C02481222311F02150D9
:100BF0002483E881F9812581222311F02150258366
:100C00008A809B80D40116962C91169721111BC0C7
:100C10008A809B80F4012781211148C0EA81FB81F1
:100C20002381222361F020E030E0A0E0B0E0EA81FF
:100C3000FB8140815181A417B50708F46EC0893C3F
:100C4000910528F6BBCF08811981F8012481211173
:100C5000DFCFED90FC9060E070E040E050E04E159A
:100C60005F05F1F0EC81FD81E60FF71F2081233055
:100C700011F0283081F424813581C280D380D601DF
:100C80001196CD90DC9012972C153D0520F42F5F26
:100C90003F4F358324834F5F5F4F6A5F7F4FDFCFC6
:100CA000F4012681D80114962C93B2CF08811981C2
:100CB000D80115962C912111B1CFE080F18060E030
:100CC00070E040E050E04E155F05F1F0EC81FD81F1
:100CD000E60FF71F2081233011F0283081F42481A2
:100CE0003581C280D380D6011196CD90DC901297C9
:100CF000C216D30620F421503109358324834F5F77
:100D00005F4F6A5F7F4FDFCFF4012781D8011596CF
:100D10002C9384CF2150238381CFA901440F551FE9
:100D2000EC81FD81E40FF51F6081653809F047C053
:100D30006181662319F06150618341C0A0826C819A
:100D40007D81FB01E40FF51F0280F381E02DB0826D
:100D5000EE81FF81E20FF31FD280DD2081F140E0C0
:100D600050E000E010E0EA81FB81608171810617AC
:100D7000170728F5EE81FF81E40FF51F6281D61277
:100D800019C0BA01660F771FEC81FD814F01860EF5
:100D9000971EF401E280F380F701F080F0FE0AC0B4
:100DA000F401A082EC81FD81E60FF71F0280F38140
:100DB000E02DB0820F5F1F4F4D5F5F4FD4CF119674
:100DC0002D5F3F4F34CF8BE0DF91CF911F910F917B
:100DD000FF90EF90DF90CF90BF90AF909F908F905B
:100DE0007F906F905F904F903F902F9008952F923B
:100DF0003F924F925F926F927F928F929F92AF92AB
:100E0000BF92CF92DF92EF92FF920F931F93CF93F7
:100E1000DF93CDB7DEB72C970FB6F894DEBF0FBEC9
:100E2000CDBF2C01009709F463C1DC0112962D900F
:100E30003C901397F1017280ED91FC916180D1019A
:100E400017968C911797E72CF12CFC82EB82262DBC
:100E500030E0882309F4A9C08D909C905701AA0C1A
:100E6000BB1C6901CC0CDD1CE12CF12C40E050E0F6
:100E700000E010E00815190549F1848195818E0D77
:100E80009F1DDC0111966D917C9112978281938157
:100E90008C0D9D1DDC018D919C918617970728F480
:100EA000DB01A81BB90BCD0105C06817790730F429
:100EB000861B970B4817590708F4AC010F5F1F4FAB
:100EC000B5E0EB0EF11CCA0CDB1CD4CFD101189697
:100ED0008C91682F70E06417750708F057C0068082
:100EE000F781E02DE20FF31F80818F5F8083F20195
:100EF00040815181A281B381FA018181468157816C
:100F0000FA01E80FF11D908119968C9119979813A9
:100F10004CC015960D911C911697D801A20FB31FC6
:100F20008C91882311F0815001C08FE0F80161E0BD
:100F300070E040E050E0EB80FC804E155F0560F40F
:100F40004217530729F09081981302C060E070E0C7
:100F50004F5F5F4F3196EFCF672B19F38C9380E093
:100F600090E0D2011296ED91FC911397428150E0EE
:100F700084179507D0F4D201ED91FC910680F7819A
:100F8000E02DE80FF91F10820196EBCF869590E0D7
:100F90004817590750F40680F781E02DE20FF31F40
:100FA0008081882311F081508083F2010280F381D7
:100FB000E02DFA83E983EB80FC80EE0CFF1CFC82C1
:100FC000EB82B901660F771F7E836D83D72CD69491
:100FD000D39440E050E020E030E0E12CF12C8D2D66
:100FE00090E098878F83A981BA818D919C91E816B2
:100FF000F90608F068C0D201ED91FC91A481B58199
:10100000BD01620F731F7C876B87DB018C918C7134
:1010100009F04FC011966D917C9112978281938156
:10102000840F951FED81FE81E80FF91F71836083A6
:10103000A12CB12CC12CC714C0F5FC01EC0DF11D85
:10104000EC0DF11D9A87898799249394812C312C7A
:101050007314C9F0C31479F0A985BA850D911C9158
:10106000608171810617170711F4939404C0061765
:10107000170708F48394339469857A856E5F7F4FF0
:101080007A876987E5CF9D1458F48D1460F4692D33
:1010900070E0680D711DAF81B8856A177B071CF081
:1010A000A080B180C72CC394C6CFEB85FC85B282EB
:1010B000A182FFEFEF1AFF0A2B5F3F4F6B817C810C
:1010C000460F571F90CF6394671408F0612CE98195
:1010D000FA81A381B48185819681FC01E60DF11D21
:1010E00080818C93D201ED91FC91618280E001C0FE
:1010F0008BE02C960FB6F894DEBF0FBECDBFDF910C
:10110000CF911F910F91FF90EF90DF90CF90BF9004
:10111000AF909F908F907F906F905F904F903F9097
:101120002F90089595E090939601E091DD01F09164
:10113000DE010188F289E02D309709F00994FFCF94
:10114000E091DD01F091DE010388F489E02D309714
:1011500009F0099480E40C9492088091DD0190914B
:10116000DE010895CF939093DE018093DD0180919D
:101170009601853039F0823028F0809194018823DF
:1011800071F140C010929401C0E0A091DD01B091D6
:10119000DE018C2F90E0880F991F1196ED91FC9144
:1011A0001297E80FF91F0190F081E02D309729F395
:1011B00017962D913C911897D901A80FB91F8D91C1
:1011C0009C910995882329F0809194018F5F8093E9
:1011D0009401CF5F809194018823B9F2CECF82E051
:1011E00080939601E091DD01F091DE010784F089A2
:1011F000E02D309711F0099508C085E080939601A5
:1012000081E001C08F5F80939401809194018823D5
:1012100031F01092940180E8CF910C949208CF9114
:1012200008951F93CF93DF93182FA091DD01B09104
:10123000DE0115962D913C911697D0E0F901ED0F46
:10124000F11DED0FF11D80819181892B11F0DF5F80
:10125000F5CF53968D919C915497892B49F1812F0D
:1012600090E0880F991FF901E80FF91F0190F081B4
:10127000E02D3097E9F01B962D913C911C97D901F8
:10128000A80FB91F8D919C91009791F060EA78E0CA
:101290000995C82F811106C083E0809396011092B2
:1012A000950103C082E0809396011D1728F001C0CC
:1012B000C2E082E80E9492088C2FDF91CF911F91AB
:1012C0000895E091DD01F091DE010584F685E02DC1
:1012D00009941F93CF93DF931F92CDB7DEB7198286
:1012E000E091DD01F091DE010588F689E02D30976F
:1012F00049F082E080939601CE010196099583E042
:10130000809396018091940181112CC01981111153
:1013100029C084E080939601A091DD01B091DE01A7
:101320008091950190E0880F991F1396ED91FC91A3
:101330001497E80FF91F0190F081E02D19962D9177
:101340003C911A97309781F0D901A80FB91F8D9160
:101350009C91099581113EC0809195018F5F80938A
:101360009501DACF10E03DC010929501F901E10F2F
:10137000F11DE10FF11D0190F081E02D309759F042
:101380000190F081E02D808187FF03C09C919460E3
:101390009C931F5FEBCF1093950182E080939601A1
:1013A0005796ED91FC915897309711F0099505C02B
:1013B000809194018F5F8093940110E0809194015B
:1013C000882379F0109294018091950180640E94A5
:1013D000920807C0809194018F5F8093940113E07D
:1013E000EDCF812F0F90DF91CF911F9108958091C4
:1013F0009E0190919F01A091DF01B091E001ED91DC
:10140000FC9111974081518125E0289FB001299FCF
:10141000700D112420E030E084179507A8F414968D
:10142000ED91FC911597E20FF31FE60FF71FE08196
:101430002B5F3F4FE0FD02C00196EECF90939F01DE
:1014400080939E0180E0089510929F0110929E016A
:1014500081E008954AE0489F9001499F300D112492
:10146000E091DF01F091E0010280F381E02DE20FD5
:10147000F31F42814093F800E091DF01F091E00119
:101480000280F381E02DE20FF31F43814093F900C6
:10149000E091DF01F091E0010280F381E02DE20FA5
:1014A000F31F44814093FA00E091DF01F091E001E5
:1014B0000280F381E02DE20FF31F40814093F200A0
:1014C000E091DF01F091E0010280F381E02DE20F75
:1014D000F31F41814093F30065E0689FA001699F7D
:1014E000500D1124E091DF01F091E0010480F581BD
:1014F000E02DE40FF51F83818093E500E091DF018B
:10150000F091E0010480F581E02DE40FF51F838167
:10151000948188279F739093E600A091DF01B0919A
:10152000E0011496ED91FC911597E40FF51F808171
:1015300081FD608314968D919C911597FC01E40FB9
:10154000F51F80818C7171F41296ED91FC911397C7
:10155000E20FF31FE085E295EF70F0E0E158FE4FF7
:10156000808101C08FE38093E700E091DF01F0917B
:10157000E0010280F381E02DE20FF31F86818B3FB3
:1015800010F48C5F01C08FEF8093E800E091DF01E1
:10159000F091E0010280F381E02DE20FF31F8781DB
:1015A000807F9185892B8093E400E091DF01F091A9
:1015B000E00182819381FC01E20FF31F87818F702C
:1015C0008093E10082E18093E0008091E9008160F6
:1015D0008093E90008954F925F926F927F928F926D
:1015E0009F92AF92BF92CF92DF92EF92FF920F93B2
:1015F0001F93CF93DF9380919D01882309F431C11C
:10160000A091DF01B091E001E090E101F090E201F2
:10161000412C512C60E070E000E010E080E0662496
:10162000639491E8792EAA24AA94BB24B394CD9014
:10163000DC901197F601208131810217130708F021
:101640000CC1E701299139917E011496ED91FC912D
:101650001597E60FF71F40814C7150E0569547955E
:10166000569547954115510521F041305105C1F07E
:10167000EBC012964D915C911397440D551DEA01F4
:1016800098859F704985941710F4491B01C040E06C
:1016900002C0369527954A95E2F732832183D5C05B
:1016A00012964D915C911397440D551DEA010984E2
:1016B00002C0369527950A94E2F73283218343814D
:1016C00054812115D2E03D0720F02F5F314091E099
:1016D00005C0E501C21BD30B9E0190E0E601DA8054
:1016E000D0E4DD1205C036952795992319F009C07D
:1016F000992339F04F3F9FE3590731F470828EE010
:1017000007C08824839401C0812C2A30310598F4C5
:101710001496ED91FC911597E60FF71F208127FF96
:1017200060821496ED91FC911597E60FF71F5F7399
:10173000548343838AC06A01CC24C0E3DC229D2CFD
:101740009294DFE09D226A01CC24DFE0DD229D2D12
:101750006A01C0EFCC22DD2454E0D694C7945A9598
:10176000E1F75C2D4F70811032C0203D310560F0F3
:10177000D3E09D1649F093942F5C3109F6CF9F304A
:1017800041F09F5F2551310926313105C0F79F3067
:1017900069F493E0991202C09FE008C0939495E029
:1017A00005C05F3049F05F5F2250310923303105B9
:1017B000C0F75F3009F05BC09F3009F454C09F5FF1
:1017C00055E055C0992061F09A942F5C3109203D75
:1017D0003105C0F705C0992341F0915025513109D9
:1017E00026313105C0F791110CC0911002C090E074
:1017F00008C09A949AE005C0552341F051502250F8
:10180000310923303105C0F751110DC09923B9F1C9
:1018100091505AE023303105D0F605C02330310510
:1018200058F14FE05FE0292D30E0322F222732952A
:10183000307F392B242BC0E15C9F60011124C22A28
:10184000D32AD482C38201C0FFCF0F5F1F4F6B5FCB
:101850007F4FDAE04D0E511CEACE92E090939D014D
:1018600010C083E00EC053E09516C1F25FE0233054
:10187000310508F07ACFD7CF5FE04FE0D4CF50E00A
:10188000D2CFDF91CF911F910F91FF90EF90DF901A
:10189000CF90BF90AF909F908F907F906F905F9010
:1018A0004F9008958F929F92AF92BF92CF92DF9206
:1018B000EF92FF92CF93DF93009709F46CC0DC01A5
:1018C000ED91FC91C080D180E12CF12CA0E0B0E042
:1018D00040E050E0BA0120E030E0AC15BD05B1F0C9
:1018E000EC01EA81FB81EE0DFF1DA080B1802A2969
:1018F0003B2982809380A480B580482959296A2990
:101900007B291196DAE0ED0EF11CE7CF4115510568
:101910006105710509F441C0E0919D016A017B01F7
:10192000CC24EE24FF24DB01CA0188279927BB279A
:10193000E11115C02093F0003093F1004093F400C2
:10194000CD2CDE2CEF2CFF24C092F500CD01AA2770
:10195000BB278093F60081E080939D011AC0E0913F
:10196000F0002E2B2093F0002091F100232B2093E8
:10197000F1002091F400422B4093F4002091F500F7
:101980002D292093F5002091F600822F8A2B809339
:10199000F60080E003C08BE001C082E0DF91CF91D0
:1019A000FF90EF90DF90CF90BF90AF909F908F907F
:1019B0000895009731F09093E2018093E10180E077
:1019C00008958BE00895CF93DF9300D000D0CDB77A
:1019D000DEB71092A1011092A2011092A301109201
:1019E000A4016115710509F4DBC0009709F4D8C0A2
:1019F00020919D01222309F4D5C0243009F093C021
:101A00001092A0018091E90080FF8BC02091E80036
:101A100030E0A6E0B0E00E94900E6093A1017093C8
:101A2000A2018093A3019093A4012091E3002F7061
:101A3000DC01CB01820F911DA11DB11D8093A1017D
:101A40009093A201A093A301B093A4012091E4007C
:101A5000277004C0880F991FAA1FBB1F2A95D2F7B1
:101A60000E96A11DB11D8093A1019093A201A09398
:101A7000A301B093A4012091E100237004C0880F5A
:101A8000991FAA1FBB1F2A95D2F722E0B695A795EA
:101A9000979587952A95D1F78093A1019093A201FC
:101AA000A093A301B093A40119821A821B821C8205
:101AB00021E049815A816B817C81481759076A0767
:101AC0007B07B0F43091A001332329F089839A83F6
:101AD000AB83BC8320E049815A816B817C814F5F5D
:101AE0005F4F6F4F7F4F49835A836B837C83E1CF76
:101AF0002223B9F08091E90080FF13C01092E0002A
:101B0000000082E18093E000000081E08093E90022
:101B10008091990190919A01019690939A018093F6
:101B2000990181E042C09093E0018093DF017093BE
:101B3000980160939701DC01ED91FC9182818034E2
:101B400011F488E003C0803879F58AE08093E200E0
:101B5000E091DF01F091E0010190F081E02D8481BE
:101B6000803108F080E18093E30081E084BB8093C2
:101B7000740010929F0110929E010E94F70981113A
:101B80000BC084E080939D0180919E0190919F0104
:101B90000E942A0A80E009C082E080939D0105C06E
:101BA0008BE003C083E001C082E00F900F900F90A4
:101BB0000F90DF91CF9108950097C9F0DC01ED916E
:101BC000FC911197208131812617370790F045E06D
:101BD000469F9001479F300D11241496ED91FC9182
:101BE0001597E20FF31F81E0808380E008958BE07A
:101BF000089582E008950097D1F1DC01ED91FC9108
:101C00001197208131812617370798F12281149688
:101C1000ED91FC911597203459F485E0869FD00111
:101C2000879FB00D1124AE0FBF1F84E392E00CC05C
:101C3000203881F485E0869FD001879FB00D112464
:101C4000AE0FBF1F87E695E014969C938E93139773
:101C500080E001C082E095E0969F9001979F300D53
:101C60001124E20FF31F90819260908308958BE01E
:101C7000089582E008951092E00081E08093A00131
:101C80008091EE006091EF0020919E0130919F01C4
:101C9000A901440F551FE091E101F091E201E40F29
:101CA000F51F90E0962B9183808380919B0190910A
:101CB0009C01019690939C0180939B01892B21F4B8
:101CC00010929A01109299012F5F3F4F30939F011C
:101CD00020939E010E94F709811109C084E080933E
:101CE0009D0180919E0190919F010C942A0AE091A0
:101CF0009701F0919801099497FB072E16F4009430
:101D000007D077FD09D00E949F0E07FC05D03EF456
:101D1000909581959F4F0895709561957F4F089597
:101D2000A29FB001B39FC001A39F700D811D11241C
:101D3000911DB29F700D811D1124911D0895AA1B44
:101D4000BB1B51E107C0AA1FBB1FA617B70710F0A6
:101D5000A61BB70B881F991F5A95A9F780959095D8
:0A1D6000BC01CD010895F894FFCFF7
:101D6A0031011C0100004A010000E30C00004A0195
:101D7A000000F70651030000520C0000AC012701D5
:101D8A00D701240114010001000400050014051400
:101D9A000135013D010000A601B501B201010003B0
:101DAA005E014701010F060001025A015001B50107
:101DBA0000008000000000010004010080300006DD
:101DCA0005030707070707FEFDFBF7EFDFBF7F3EA7
:101DDA003D3B372F1F3F3FFEFDFBF7EFDFBF7F3F46
:061DEA001C0B05030100C3
:00000001FF
